S00F000050434D6D61696E2E7372656390
S11300000C9494320C94BA320C94BA320C94BA32E2
S11300100C94BA320C94BA320C94BA320C94BA32AC
S11300200C94BA320C94BA320C94BA320C94BA329C
S11300300C94BA320C94BA320C94BA320C94BA328C
S11300400C94BA320C94BA320C94BA320C94BA327C
S11300500C94BA320C94BA320C94BA320C94BA326C
S11300600C94BA320C94BA320C94BA320C94BA325C
S11300700C94BA320C94BA320C94BA320C94BA324C
S11300800C94BA320C94BA320C94BA320C94BA323C
S11300900C94BA320C94BA320C94BA320C94BA322C
S11300A00C94BA320C94BA320C94BA320C94BA321C
S11300B00C94BA320C94BA320C94BA320C94BA320C
S11300C00C94BA320C94BA320C94BA320C94BA32FC
S11300D00C94BA320C94BA320C94BA320C94BA32EC
S11300E00C94BA320C94BA320C94BA320C94BA32DC
S11300F00C94BA320C94BA320C94BA320C94BA32CC
S11301000C94BA320C94BA320C94BA320C94BA32BB
S11301100C94BA320C94BA320C94BA320C94BA32AB
S11301200C94BA320C94BA320C94BA320C94BA329B
S11301300C94BA320C94BA320C94BA320C94BA328B
S11301400C94BA320C94BA320C94BA320C94BA327B
S11301500C94BA320C94BA320C94BA320C94BA326B
S11301600C94BA320C94BA320C94BA320C94BA325B
S11301700C94BA320C94BA320C94BA320C94BA324B
S11301800C94BA320C94BA320C94BA320C94BA323B
S11301900C94BA320C94BA320C94BA320C94BA322B
S11301A00C94BA320C94BA320C94BA320C94BA321B
S11301B00C94BC320C94BA320C94BA320C94BA3209
S11301C00C94BA320C94BA320C94BA320C94BA32FB
S11301D00C94BA320C94BA320C94BA320C94BA32EB
S11301E00C94BA320C94BA320C94BA320C94BA32DB
S11301F00C94BA320C94BA320C94BA32878C8B8D2C
S11302008D8C908E8E9090908B808285858486874D
S113021086898988909A99999B989A9A979895979C
S11302208E82817F7E7E7C7B7B7A79787A848783D9
S11302308281817F7E7E7B7D7B6D6B6B6A6B6B685D
S11302406B6A69696A737A77767677747575757689
S113025077706A6C707171757676797A78858E8A22
S11302608E8C8D8E8F8D908E9089818284858485ED
S11302708787878B868F9B979A9999999A9898954F
S1130280978F82827F7E7E7D7B7B7A78787A848763
S1130290838382817E807E7C7C7B6C6B6D696C6CDD
S11302A0696B6B6A6B6A757A77777677747575762E
S11302B075786F696E6F7171757576787B79858DD8
S11302C08C8D8E8C8F8F8E9090918A82828485847F
S11302D0868787878B888E9B97999A98989A979800
S11302E09596908182807E7E7E7B7D7A7A797B85ED
S11302F086848181827E7F7E7C7D7C6C6B6C6A6B64
S11303006B6A6B6C696A6A757978767677747576D8
S11303107676786F6B6C6F7172747576787B78858E
S11303208E8A8D8C8C8D8F8D90908F8A8082838520
S1130330848687878889878E9B97999998999998B5
S1130340979695918282807E7F7D7C7C7B79797C77
S11303508587858382817F7E7F7B7C7B6D6A6D6AE6
S11303606A6C696B6A6A6A6B757979777577747583
S1130370767576776F6A6D6E7172737676787B7840
S1130380858D8B8D8D8C8D908E8F908F89808282C0
S11303908684868787868B878E9B98999998979A67
S11303A098979697908282817E7E7F7B7C7B7979F9
S11303B07A8587848381817F7E7F7B7C7A6D6A6D79
S11303C06A6B6B6B696B696A6A7579777776767530
S11303D073767476776D6B6C6E7172737675787AEA
S11303E079848E8C8C8F8C8E8F8F908F9188818363
S11303F08386858588868789888F9A99989A98981C
S11304009A98989597908281817F7E7F7B7C7C7976
S1130410787B868586828281807F7E7D7C7A6E6A07
S11304206B6A6A6C6B6A6C6B6A6B767979787577D0
S11304307575757476776D6B6B6E70717276757792
S11304407A79848D8B8C8D8D8D8F8D8F8F91888211
S113045083838584858787868A878E9A99979A98D5
S1130460989899989597918382827F7F7F7C7C7BF3
S11304707B787C8586848480827F7E7E7C7C7B6D99
S11304806A6D6B6B6C6A6A6B6A696A757977787680
S1130490767673767576766D6B6C6D717173757631
S11304A0767A7A838D8A8C8D8D8D8E8F8E8F9187BF
S11304B081828384868488878789898F9A99979A89
S11304C09997999898969790838281807E7F7D7C76
S11304D07B7B787C8785868382837F7F7F7C7C7B24
S11304E06E6B6D6A6B6B6B6B6B6C696C7678787921
S11304F075777773757476766C6A6C6D70717375D5
S113050076767A79838D8B8B8E8C8D8E8E8E909071
S11305108881828284868487878689878E99999741
S11305209A9898989997979691838282807E807DF5
S11305307C7B7C787D868586848281817E7F7E7BC0
S11305407B6D6A6C6B6A6B6C696B6B6A6B777977C2
S11305507975777674747575766C6A6C6D70727271
S11305607675777978848C8B8C8C8D8D8F8F8D8F2D
S1130570908880828284848486888689878E9998EC
S113058098989998989997979791838282807E7F7B
S11305907C7C7B7B787D878685858282827E7F7D5D
S11305A07D7A6F6A6D6B6B6B6C6A6C6C696C777956
S11305B0787876767774757476756B696C6D70720D
S11305C0727576757A79848D8B8B8C8E8D8E8E8EEA
S11305D08E918680838184848485888687888E9A98
S11305E09997999998989998979890848182807FFF
S11305F07F7D7C7B7C797D888685868182817F80F6
S11306007D7D7A6E6B6C6C6A6B6B6B696C696A78F6
S113061079777876757774757575776A686D6C6FA8
S113062072717575767879848C8B8A8C8E8C8D8FAB
S11306308E8E918780848284868486888689888F3A
S11306409A98989899989799979797908481828087
S11306507F7E7F7B7C7D787D898585858281827E96
S11306607E7E7C7A6E6B6C6B6B6A6B6B696D696B8F
S1130670787A777977767774757574766A696D6B3D
S11306806F7171737676787A838C8B8B8C8D8D8E6B
S11306908E8E8D91867F84818386858587878889E0
S11306A08F999999989A99989A9996989085818210
S11306B0807F7E7F7C7C7D797D888786868182822F
S11306C07F7E7F7B796D6A6A6C6A6A6B696A6C6922
S11306D06B777A777975767675747474766B686CE3
S11306E06C6F70717376757778838A8C8B8C939129
S11306F092939292958B8186858583828485858663
S1130700868E969896979C9D9C9C9C9A9C94888592
S113071085837E7B7D797A7A767A878484838584DF
S113072085828180817C716D6E6F69686968676A92
S1130730676875787577777A7878767777776D697B
S11307406F6E6E6D6F7073737576818988898B9007
S1130750908F929190948982858584838283858504
S113076085868D979697979C9C9A9B9C9A9A93873B
S11307708585847E7A7D7A797B767B86858283847F
S11307808584838181807C706E6D6F696769686719
S11307906A67687677747577797878767776786D1E
S11307A0686F6E6D6E6E7072747477828989898ACF
S11307B090918F92928F938980858583828183859E
S11307C08486858E979697969C9C9A9B9C999A92E0
S11307D0888584837D7B7D7A797A777B878582831C
S11307E0868585848181817C706F6E6E6B67696894
S11307F068686869767874767779787876777778C0
S11308006C696D6E6C6C6E6E727274768088898998
S11308108B91908E91908F93888083858181818242
S1130820838584868D979697969C9C9B9B9C9A9A8D
S113083094878684847D7C7D7B787B777A888684A4
S113084084878585838280827B716E6D6E6A67681A
S11308506A6669686875797676797A7A7977777766
S1130860786C686D6E6C6D6E707373747683888942
S11308708A8990908E90928F928A818586848182D3
S113088083848584858E969796979B9C999B9C9947
S11308909B9288868584807B7E7C797B787A888528
S11308A08284858485838280817B706D6E6E6A67A5
S11308B068696669686975797476787A7979777719
S11308C076786C696E706C6D6E70717473778287F4
S11308D0898889908F8F8F918F9289818486848073
S11308E08382848586858F979696979A9C9A9A9BFD
S11308F0999A91888784847F7A7C7C797B777B86BC
S1130900868284858684848181817A706E6E6E6C21
S11309106668696869696B757A7575787A797977C3
S11309207577766C676D6E6D6D6E6F7174737783AA
S11309308788898A8E918E90908F9189818386840D
S11309408282838585868490969698969A9D9B99B3
S11309509C999B9188878583807C7C7D797B787D3D
S113096086868482868684848281817C6F6F6F6DA3
S11309706C69686A68686969757876747979787871
S1130980787676776C696D6E6C6B70727377787944
S1130990878D8D90949898999C9C9D9E968F918F0D
S11309A08C8683827E7E7C7A7F8682817F817F7C37
S11309B07D7A7877706564656766696C6D6F73734B
S11309C07C888C8E909598999A9C9B9F9C919090F2
S11309D08D8883837F7E7C7A7B8385827F807F7D05
S11309E07A7A7876746662636666686A6E6F737420
S11309F076858C8D8D9195979799999A9B938C8DEB
S1130A008D8984807F7C7C7A757D83817E7E807DE8
S1130A107D7A7976786E6363656667686C6D7175E7
S1130A20757D8A8C8C8F949697989A9A9D998F8FBE
S1130A308E8D8682807E7C7A78788382807E7E80AA
S1130A407D7C7A787675666263666667696D6E73B7
S1130A507477848C8B8E9096979699989A9C938CA5
S1130A608F8D8982817E7D7A7A757E84817F7D8077
S1130A707E7D7B7A76786E6364656866686B6E707B
S1130A8075747D8A8B8D8D9496969898999B998E82
S1130A908D8E8C85827F7D7D7B787882837F7F7F3E
S1130AA0807D7B7A7778756864646666676A6D6F43
S1130AB0747576858C8B8E9196969898999A9B925C
S1130AC08C8E8D8883807F7C7C79767D85807F7D0C
S1130AD0807E7D7A7976786E6363656666686A6E11
S1130AE07075757C8B8C8D8E9496979799999C973D
S1130AF08C8D8D8C84817F7E7C7A787883837F7CD7
S1130B007E7F7D7B787776746661646667676A6DDD
S1130B1071747678878D8E8F9296989798989A9B11
S1130B20918D8E8D8983807F7D7C79767D85807F94
S1130B307E7F7E7B7A7875776D6262646566676CAA
S1130B406F7174757E8A8C8C8F9496959898999C05
S1130B50978E8E8F8B8681817E7C7A787982837F53
S1130B607F7F807C7C7B7777736762656567676B63
S1130B706D70727677848C8B8E91959696999898F1
S1130B809C918E8F8C898380807C7C7A777E858112
S1130B90817F817E7D7A7976776E62646567666926
S1130BA06C6F7074757D8B8A8D8F949697989A99D3
S1130BB09C998E8D8E8B8680807E7C7A78788382D9
S1130BC0807E7E817E7C7B787675676364676666EB
S1130BD0696C6F727577858C8B8E909697979998C0
S1130BE09A9A928C8E8C8981807E7C7B7A767E83A5
S1130BF0817E7D817F7E7C7A77786D6363656666AE
S1130C00676C6E7174757E8A8C8D909397979999A1
S1130C10999C988E8F8E8D85827F7E7A7B77788360
S1130C20827F7E7F7F7D7B79787674666265666776
S1130C30676B6E6F747579858D8D8E919696989885
S1130C4099989B918D8E8D8A82817F7C7B79767C2D
S1130C50837F7F7E817E7D7C7877756D6264656637
S1130C6066686C6E7275777F8C8C8E919597979869
S1130C709A989C978E908F8B8683807F7B7B7878E5
S1130C8083827F7F7F807C7C7B77777366626466F8
S1130C9065676A6E6F737577868B8C8E929597975E
S1130CA09899999C918D8F8D8A83827F7D7A7A77AA
S1130CB07E84817E7E7F7E7B7A7976776C636465C1
S1130CC06767686D6E7173757E8A8C8C8F93969648
S1130CD098999A9C988E8F8E8B8681817E7C7B7866
S1130CE07983837F7E7E807C7B7978767465626489
S1130CF06666676A6E70727577868B8C8D9295972F
S1130D009699989A9B928D8E8D8A83817F7E7B7B28
S1130D10767F83817E7E7F7F7B7B7877776C63634E
S1130D20666767686D6F7173757D8B8B8D8E939716
S1130D309698999A9C988E8E8F8C8681817E7B7BE7
S1130D40777A8382807E7E807C7B7A767673656216
S1130D50636666676B6E6E737478868B8C8D909603
S1130D609697989A9A9D918E8E8E8982817E7D7BAC
S1130D7079777E84807E7F7F7F7C7B7877776C63D6
S1130D8064656666686C6E7274757D8B8B8D8F94EA
S1130D909797989A999C978E8F8F8C8582807E7B6B
S1130DA07A77788381807D7F7E7D7A7A77777465A0
S1130DB062636667666B6C70727577878D8C8F92D1
S1130DC09597979999999C918D8E8C8983817F7C35
S1130DD07C7A767F84817E7F807E7D7B7977766D59
S1130DE06164646665686A6E6F73737E8B8B8D8FC6
S1130DF095969899999A9B988E8E8F8C8783817EED
S1130E007D7B78798482817E807F7E7C797876741C
S1130E106563636567666A6D6F737577868B8C8DA2
S1130E2092959798989A9A9D918D8F8D8A838180B7
S1130E307E7C7A768084817E7E817E7B7B797577E9
S1130E406B6364656667686D6F717575808A8C8C79
S1130E508F939697979A999C968D8E8F8B86818186
S1130E607F7B7B777A83837F7E80807C7B7A7777B6
S1130E70736463646766676B6D70727579878B8C56
S1130E808D9295979699999A9B918D8F8C89828151
S1130E90807E7C7A768084817E7E807D7C7A787781
S1130EA0756C6164646765696B6F7175747F8B8B36
S1130EB08C8F9396979899989C978C8F8D8C84821D
S1130EC0817E7B7B777A8482807E7E807C7B79784E
S1130ED076736563646667686B6D70737678878B09
S1130EE08C8D9295979899989B9B918C8F8C8982E5
S1130EF0817F7C7B79777F83817E7E807D7C7B781C
S1130F0077766C6364646765696B6F7174767F8BE5
S1130F108B8D8F9496969898999B968E8E8F8B85B1
S1130F2083807E7C7B777A83837F7E807F7D7C7ADF
S1130F307776736662656566666A6D6F73747986C3
S1130F408C8B8E9196969899989B9C908E8E8E8879
S1130F5083807F7C7B7A768083817E7E7F7E7B7BB1
S1130F607975766B6263656666686C6E7174757E9E
S1130F708B8B8D8E9596979799999C978E8E8E8B49
S1130F808581807D7C7B777B83837F7E80807C7B77
S1130F90797776736663646765676A6D707275796D
S1130FA0868C8B8E92959797999A9A9C918C8F8C1C
S1130FB08982817E7E7B7A777F85807E7E7F7E7B41
S1130FC07A7875766B6263646766696C6E71747542
S1130FD0808B8C8C8F9497969999999C978D8E8EF3
S1130FE08B8681807D7C7A787984837F7D807F7C09
S1130FF07C797877736663646766676A6E70727506
S113100078878C8C8E929697979A999B9B918C8FCC
S11310108D8982817E7D7A78777F847F7F7F807FD0
S11310207C7B7977766C6265656765696B6F7175D2
S113103075818B8C8C8F94979698999A9C978C8FAA
S11310408E8A8580807E7C7A777984827E7E7F809A
S11310507D7A7A7776736564646665676A6E7073A1
S11310607578868C8B8E9195979799999B9B928D89
S1131070908C8982817F7D7C79777F84807F7F7F5C
S11310807E7B7B7876776C6363656566686D6E726C
S11310907575808B8C8E9094979698999A9B978C63
S11310A08F8D8C8482807D7C7A787A83827F7D8028
S11310B07F7D7A7A7677726562656667666B6D7036
S11310C0737578878B8C8D9295979799989B9B9045
S11310D08E8E8D8983807F7C7B79777F84807F7EF1
S11310E07F7E7C797875766B6164656767696D6E00
S11310F0727475808A8B8C909497979899999D9621
S11311008E8F8E8A8581807E7C7A777B83827F7EB8
S11311107F7F7C7B7A7677726463646666676A6EC7
S113112071737578878B8C8E9295979798989B9B03
S1131130918D8E8D8883817E7D7B79778084817E7D
S11311407E817D7D7A7875766A62646666676A6C8C
S113115070717576808B8C8C909497969799989CE7
S1131160968C8F8D8B8482807E7D7B787C8581803C
S11311707E817F7E7B7A7778716563636665676B52
S11311806D7173757A888B8C8D9295979698989BD0
S1131190998F8B8E8C86817F7E7C7A79778085800F
S11311A07E7F807F7C7B7975766A62646567666A18
S11311B06D70727675808A8C8C90949697979A99B4
S11311C09C958C8D8B8A85817F7D797B797B8481CD
S11311D0807E7F807C7C7B797872666465686667D4
S11311E06B6F70737478797D7D7F919898999B9CCF
S11311F09D9FA0A1A0A098928E8C7E75757371712D
S11312006F6C6E716F6D6D6A6A666F7573767574E7
S1131210767A7D7F81838387888C898388888A8B8B
S11312208C8F8F91918E8E86847F818A898583822B
S1131230817F7B7E7D7D7A7976767366616566676C
S1131240676A6D6F737478787B7D7F8E9897999AAF
S11312509A9C9B9E9E9E9B97908E8C8176777472AF
S113126072706E7071706E6D6C6B696E7775787676
S113127076787B7C7E81828587888B898484878845
S11312808B8B8D8E91908F8D8583817F8A8B8885C2
S113129083817F7E7F7F7B7B7977767467616365EB
S11312A064676A6B707175787A7B807F8C9A999A7F
S11312B09B9A9D9E9EA09D9C95918C8D8476767321
S11312C072716F6E70726F6F6E6B6B696A77757720
S11312D07775797A7D7F82848487888B8C868587ED
S11312E0898A8B8D8F90918F8D8583817F878A8763
S11312F08583817F7D7F7F7C7B787875746C616466
S1131300656666696D6F7376777A7B807F89999954
S1131310999B9B9D9C9E9E9D9D95918D8C87787697
S1131320757371706E7070706D6D6A6A6A687477C7
S1131330767875797A7D7F8184868689898E89839A
S113134087888A8B8C8F8F918F8E8683827F858C02
S113135086868481807D7F7F7B7B777774766D62E0
S1131360636565666A6D6F7374787A7C7E7F87982F
S1131370989A9B9C9C9E9F9F9D9C95918D8C88790F
S113138075747270706D6F716F6F6C6C6B6A67726D
S1131390777879767A7A7E7F80848686898A8E8B3E
S11313A08387888A8A8D8D90918F8D8684837D82B0
S11313B08B87868380807D7F7E7B7C797775756F54
S11313C063626664676A6D6F7375777A7B7F7F8605
S11313D0959A999B9C9D9D9E9E9D9B968F8E8A8A95
S11313E07D74757270706D7070706E6C6C6A6A6703
S11313F06E777678767A7B7D80808485878A898EFD
S11314008D8587888A8B8C8F8F918F8D8782827E42
S11314108089888683827F7E7F7F7B7B77787573E4
S11314207264636565666A6C707274787A7D7E81B5
S113143084939A999C9B9D9E9D9F9D9D96908F8A37
S11314408B7E74747270706D70716E6F6D6C6A6B7C
S1131450666C75787777787B7D80828386888989C6
S11314608E91868689898B8D8D908F8F8D868381D1
S11314707F7D88888583807E7D7F7F7C7A7977767F
S1131480747368626665666A6C707275777A7C7E5E
S11314908183919A999C9B9D9D9E9F9E9B968F8EE6
S11314A08A8A8174727270706E6F706E6F6C6C6AFF
S11314B06A676974797777787C7D81818485878987
S11314C08A8C928786888A8C8D8F8F908F8D868365
S11314D0827F7D85898583817E7E7F7E7C7A797615
S11314E07672746962666467696D70717578797D06
S11314F07E80848F999B9B9C9E9D9F9F9E9C969093
S11315008E8A898476737370706C6F706F6F6D6B75
S11315106A6A6768737978777A7B7E808383868743
S1131520898A8D928A848A898B8D8D908F8F8C8500
S11315308380807B838A8483827E7E807E7D7A79A9
S1131540777573746C636565676A6D6F7275777AA6
S11315507C7E81848C989B9B9C9B9E9EA09E9C974A
S1131560918E8C8987787373716F6E6E716E6E6BEA
S11315706B6A69696570787776797B7E7F8283860A
S113158086898A8D938D8589898C8C8E90908F8C99
S11315908584817F7C7F898584827F7F7F7F7C7C3B
S11315A079777573727063656466696C6F72757749
S11315B0787C7D80858A959B9A9D9C9E9E9F9E9C0F
S11315C095908D8B87877A72736F706D6F706E6E66
S11315D06C6C6A6968666E787877797C7E808183C2
S11315E08687898B8D94908588898B8D8E90918F39
S11315F08D8484807F7C7C878683827E7E807E7DD2
S11316007A797676737370666365656B6C707275E0
S1131610777A7C7E7F8688949C9A9D9B9D9EA09DD4
S11316209C95908D8C87887D72726F706D6F706FD2
S11316306D6D6C6A6968666A787776797A7E7F827E
S1131640828586898B8D94938788898B8D8E9091E2
S1131650908C8684817F7C7C858682817F7D817E5F
S11316607C7A797676747372696466666B6D6F736F
S113167077787A7C7F7F8788929C9C9C9D9E9F9F95
S11316809D9C948F8C8C87887F727270706E6E7143
S1131690706D6D6A6A6769656A7878777A7C7F802D
S11316A083858589898C8E939489888A8B8C8E8E88
S11316B0908E8C8483807F7C7A828782827E7D80F8
S11316C07E7D7A7A77767472736C6365666A6C6F02
S11316D0727477787B7E7F87878E9C9B9D9D9E9E70
S11316E09F9D9D97918E8C8988837470716E6D6FA8
S11316F0706E6D6B6B6A69686667747A767B7B7FE4
S11317008082848588888B8E93958C878B8B8E8F33
S1131710908F8F8B8684817F7E7980868481807E82
S1131720807F7D7B7A77767572736E656567696D88
S11317306F727576797C7D8085898B9A9C9B9E9D42
S11317409F9F9E9C95918D8B8787837671706F6E1A
S11317506F706F6D6D6B6B696867667379777B7B90
S11317607E8082858588898B8D93968D87898B8BE6
S11317708E8F908E8C8581817E7C7A7C868382801C
S11317807D807E7D7B7A7876757173706763676A16
S11317906B6F727477797C7F80828386969E9B9F21
S11317A09EA09F9F9C999593908E8A8A796F706D65
S11317B06D6B6B6968676666656264626D7D7D8169
S11317C0828585888A8A8D8E8F9190958F82848672
S11317D08589898B89888682827F7E797B8A8A86BD
S11317E08582817D7D7C787875757172726562679A
S11317F06A6C6F737477787B7E7F828384939E9CFC
S11318009E9DA09F9F9C9996938F8E898B7D6F6ED2
S11318106E6C6C696A6868676566636462697D7F1B
S11318207F83848688898B8B8E8E91909492838219
S11318308486878A8A8A878683817F7D7B7A878C60
S1131840878583827F7D7B79787674737074686111
S113185067686C6E727577797B7D7F8184848F9ED7
S11318609C9E9EA09F9F9D989793918F8A8B817039
S11318706F6E6C6B6A6A6866666465626263667BD7
S1131880807F84838688898C8B8E8F9291939486B3
S113189080868688898B89888583807F7D7C79840E
S11318A08C878683817F7C7B787875747271746B86
S11318B06266696C6E727477797B7E7F8184848BB7
S11318C09D9E9EA09FA19E9C9996948F8F8B8985A7
S11318D0716D6E6B6B6A6867676665646362636487
S11318E077807F848387878A8A8D8E909191939560
S11318F08A818686898A8B89888682807E7C7C78A8
S11319007F8B868582807F7C7C7978757572717314
S11319107063676A6D6F727477797B7E808085846B
S1131920899A9E9D9F9EA19F9D9A9693918E8B8945
S113193086766D6F6B6C6A686867666563636364FB
S113194064747F7F828486888A8B8D8D9090939334
S1131950968E838688888B8A8B8685837F7F7C7C22
S1131960777C89878483817F7B7C787776747271B6
S1131970727264666B6B70717577787C7D7F81831E
S1131980858698A09DA09FA19E9D9A9594908E8CEB
S11319908888786D6E6C6B69696767656464626278
S11319A06362707F81828586888A8B8D8E90919206
S11319B0939692848487888A898A868583817E7CAB
S11319C07B787986898583817F7E7C79777574724B
S11319D072737569656A6D70717475797B7B7F7FCD
S11319E082848593A09EA1A0A19E9D989694908E9A
S11319F08B89887E6D6E6C6C6A6A676665656365E3
S1131A006466656F80838284848688898A8C8D91DC
S1131A109393979486838686898988888483817F33
S1131A207C7C7878848A85837F7E7B796E6769691C
S1131A307079787771707170726C66686B6D6E6FA7
S1131A4073707A86868B8B8B8D8D90888080828450
S1131A50858588868C95949296939495968F8685A1
S1131A60858688858A8A919B9A999693948E8F8B82
S1131A707D7A7C787A757371737F807F7D7C7E7AC2
S1131A807B796D686B6B706E6E6D6E797B7B7A782B
S1131A90797877776C6363626565686C6C77817E4F
S1131AA0818282838586827B7E7D81808183828B15
S1131AB09593949593949091888183838586848962
S1131AC0868C9A9796989A9D989B93868585838110
S1131AD0817F7D828B8A878281817D7F7C6E6B6E24
S1131AE06C6C6D6D6B6D7B7E7E7E7B7D797A786CA4
S1131AF0666B68696969676571767577797A797EE5
S1131B007D7370737376777B7F7E8A928F919092C8
S1131B109092938982858384818385838C9795941D
S1131B2095959395978F868A8D8C8B8A88858C93CF
S1131B3091908F8B8D888A82717171717071706DC3
S1131B40727E7B7C7B797A797D7B6E696D6A6A6B48
S1131B506B696C79787879767272747268676B6A7B
S1131B60706E7073747F88848A8D8E8C8F90847F5E
S1131B7083818485838785919691919292929294A0
S1131B808A838784888787898A969D9C9A98949665
S1131B909191887D7D7C7C7A7A767279837F807E50
S1131BA07D7D7B7B77696A6A6B6E6E706D727D7CFE
S1131BB07B7B7979787776696665626565676A6D36
S1131BC07A7E7E8081828184847A7C7F7C8180811C
S1131BD083838F9493949395949291858084828542
S1131BE0868487869199979796999B9B9B908686E6
S1131BF085838282817D858E8A8A848081807E78B5
S1131C006D6D6D6E6D6C6D6A707C7C7F7D7B7B7B96
S1131C107A756A686A6969686B67697275747577D9
S1131C207A787D7C6E7072737676787F818D9190F0
S1131C308F91919092918582868585838284859106
S1131C4095969494969594978A85888C8E8B8C8A95
S1131C5087909690928E8B8D89897F737171727043
S1131C6071706E77807B7D7B7979797A776C6D6C16
S1131C706C6C6A6E69707B79787A767571736F6350
S1131C80686A6A6D6F707278828686868C8E8C8E96
S1131C908D808083808485848588939692909192A8
S1131CA092939287828784878788878A979E9A9A55
S1131CB09894949291847E7E7C7E797B77727C84E6
S1131CC07F7F7F7C7C7B7C726A6B696C6B6F706DD1
S1131CD0747F797A7C7879787970676866636565EA
S1131CE06767717B7D7E7F7F82818381747B7F7D4B
S1131CF07F81818187929294929396929590817F2D
S1131D0083838385868489959797979598989C98DB
S1131D108D878784868182807F8A8F898987818065
S1131D20807F736E6E6D6E6D6C6E6C757D7A7D7F6B
S1131D307B7C7A7B706A6A696B69696B697075739D
S1131D4074757779787C776D7073737577787B8623
S1131D508F8E90908F9190918F82828684868583D6
S1131D608188939494949395949494888589888D88
S1131D708C8D8B8993969091908D8B8B887B7873C7
S1131D8070737070716F7A7F7C7B7C7A797A7871EA
S1131D906D6E6B6E6C6C6C6C737D78797878767321
S1131DA0726B6368696B6C6F70707B8583878589E0
S1131DB08D8C8F887F7F8381838486828C95959494
S1131DC0918F9390938E84838786858888878C9956
S1131DD09D9B9B999894948F80807E7C7E7B7B795D
S1131DE0777E847F7F7E7D7C7D7B6D6B6B6A6B6B86
S1131DF06D6F6F787F7B7B7A7A7779786C666967A9
S1131E006664666668747D7C7F7D7F8181837C7572
S1131E10787E7E7F8181818A949194949195939325
S1131E208F80818382848487858B979697979697F2
S1131E30969B968A89888587838380848C8E8A89F9
S1131E4089847F817D6F6F706D6E6E6D6C6F787C31
S1131E50797A7D7E7A7C7A6D696B696A6B686B6A64
S1131E60737873757376787979726C707175747729
S1131E70777887918D8F8F8E9191928983838487D0
S1131E80858784818B969294959295949490858677
S1131E9088878B8C8D8A8F97969490908E8B8C8666
S1131EA07779767172707170737C7F7C7C7A7C77C1
S1131EB07A766A6C6E6B6D6D6B6C6D797C79797703
S1131EC079767572656266696B6B6E706F7F8582F9
S1131ED08586858B8D8C847D808083828386838FA9
S1131EE097949593909092928B8284848785888925
S1131EF086909B9A9C9B9A9794958D7E81807C7EFC
S1131F007D7B7A7D8382827F7F807A7E786B6A6D27
S1131F10696C6B6C6D737C7E7C7C797C787877687B
S1131F20676A676865656568777C7A7E7E7E80818E
S1131F30817775777A807D8182818D949093929355
S1131F409495938B82818184828486858E999596DB
S1131F509796959699928989898686858481888FB2
S1131F608E8C8A898780827A6C6F6F6D6F6E6E6AD1
S1131F70737A7B7A797A7E7A7C786A696A6A696B21
S1131F806B696D797975757475757A766D6C6E702B
S1131F90727375777988918E8F918F9092908582E4
S1131FA08384878587868490969394939493959558
S1131FB0898686868A888D8E8C9499969591909040
S1131FC08B8D82787879727171716E787F7E7E7C68
S1131FD07A7C777A73676B6F6C6D6C6D6B717B78E1
S1131FE07B76737A757772686A696C6D696D6E72E7
S1131FF07F838184868B898D8A7D7F7E80827B7FAF
S11320007F818D9391919496969896898989898BED
S113201085878987939997969699999395898080CE
S1132020807D787877758084828380838581827AC5
S11320306E7071706C6A6A677179777777797C7979
S1132040797468676A68666266656C797A7B7D8193
S11320508483878378797B7A7C777B7B7F8B8F8C77
S11320608E8F9393959386858785888284848792BF
S1132070969694979B9A9B9B8D8A89898580817F6C
S11320807C898B888886888A86867C727474746E50
S11320906E6E6A777D797B787B7E7A7C73696A6AF7
S11320A06B666666636C76727473787A7980786E20
S11320B0737274747273757A878988898D918F931A
S11320C08D81838384858082828691959394959B68
S11320D0979B998A8A8B8B8C8788868793948F9118
S11320E08D90908D8C8079797977727371707D8001
S11320F07D7E7E7F817E7E736C6D6C6D67686865A6
S11321007178737674777977776F6769696B6C6ABE
S11321106C6E7680828382888A898D877B7F7F80BC
S11321207F7D7E7E869092929094989598958789EB
S113213089898A8587878A96989997979A98969293
S1132140868181807F787A7777838681838184838F
S1132150828175716F7071696B6A68747A7577764C
S1132160797A78796E68686969656465656F797983
S11321707A7A818382867D757A7A7B7A79797B848F
S11321808C8D8C8C909591968F8487878787828598
S1132190848B95969695989C999B988A8B8A8A8627
S11321A080817F808C8C8888888B898983787575F9
S11321B074756D6E6E6C7B7D7A7A7A7C7D7C796FBA
S11321C06A6B6A6B6565676571777274737979791F
S11321D07E736E7372747273737580888889888C49
S11321E0908D91897F828584828282828B9492955C
S11321F092969A97999388898C8B8A8888868B96ED
S113220094918F90919090897C7C7B7A797273728F
S1132210727F817C7E7E817E817B6F6C6D6D6C674D
S11322206869687479747676787979766B67696A9F
S11322306B686B6C6D7C81808382898A898B837BDC
S11322407F7F807D7D7E7D8A9190929094989498F2
S11322508F8688898A868686858E98979797999C93
S113226097998F838480817E7879777B8686828331
S1132270848583847E7172706F70686B6B6C777603
S11322807473737572737167676C6D716E71747644
S1132290868B8A8D8E949597998D898E8D908A8A56
S11322A088838D8F8C8A868A878584786E706E6C1D
S11322B0676465616B726E7172797E7E837C767AF7
S11322C07A7E7D7B807F87949395969B9F9DA19832
S11322D08B888785817A7B767A8381807D7C807BFD
S11322E07C7668676665645F64656A7A7E7E8183EE
S11322F08B8A8E8D838185868885878889989C9B27
S113230099969895938F827A7B7777706F6D6C75B9
S11323107A757573777573746A666A6E716E7075A3
S113232074818A8B8C8E92979499918A8C8E908EDC
S11323308A898689928D8C88898986857D6F6F6F5D
S11323406C6A6565636672707071767C7E81807577
S1132350787B7B7E7A7F808392949596989E9D9FCE
S11323609C8F898986827C7A79788283807E7C7F3F
S11323707C7C796D6668656561626566757E7D8164
S113238082898C8C8F858185868884858888939BB7
S11323909B9A9899979393867C7B7A77736E6E6BEE
S11323A0717A777574757873756E66696C6E706E14
S11323B073737A88898C8C90969498958B8A8D8E79
S11323C08E8A8B8787918F8D8A898A888583757099
S11323D06F6E6C676565646F726F72747B7E8082EA
S11323E07875797B7C7B7D7E7F8D949496959C9E7D
S11323F09DA0938B8986847E7B7A777F84817F7E80
S11324007F7F7C7C7167676666625F64656E7C7DD6
S11324107F82858B8B8E8A80838487858388868E52
S11324209A9B9B99989894928D7E7C7978756F6F1E
S11324306D6E78797676747874747266676A6D7086
S11324406D707375858B8A8D8E959597978D8A8C13
S11324508D8F8B8A89848F928D8C888B88858679E1
S11324606F706D6E676665636B736F7172797C7D77
S1132470817B7478797D7B7B7E7F88949396959A13
S11324809D9DA0998D8B8986827B7B767A858180C0
S11324907D7D817D7D7669676766635F61646B7945
S11324A07D7D8183898B8C8D8182848688838687D8
S11324B08A989B9B9A9899979391837B7C78777061
S11324C06E6E6B767A7676737677737469656A6DF9
S11324D06F6F6F72747F8B898C8C929596999089AB
S11324E08B8D8E8D8A8A868B928F8D898A8B868737
S11324F07D71716E6E6B6466626873707171767CE7
S11325007D817F7576797B7C797E7D8390949396AB
S1132510979E9D9E9E908B8A86847C7C797883830B
S1132520817E7E817E7C7B6E6667676560606466A3
S1132530737C7D7F82888A8B8E867F848586858462
S11325408887929C9B9B9899999394887D7C7979B0
S113255073706F6C717B787774767775756F656857
S11325606A6E6E6E71737988898B8C8F949597954A
S1132570898B8C8E8F8A8C898892908E8A8A8B899B
S113258086847571706F6C676565656F736F717242
S1132590797C7D81777378797D7A7B7E7E8C949348
S11325A095969A9E9DA0948C8A8885807B7B777E65
S11325B08681817D807F7D7C7367686765625E63E9
S11325C0636D7B7C7E81858B8A8E8A7F83848685FE
S11325D08486878D999B9B9A989B95948D7E7C7A13
S11325E079766F706D6E7A797775757776747265B2
S11325F0666A6D6E6D6F73758489898C8C949595FC
S1132600978D8A8D8D8E8C8B8B8690928E8C898CF7
S11326108A87867971716F6E696567636C726F7191
S113262071767C7B817A7478787C7B797F7E8693E3
S1132630929594999D9CA0998E8B8987827D7D78B3
S11326407C8684827F7F817C7E776A686765645F2D
S1132650636269767C7C808288888C8C82808484A6
S11326608684858788969C9C9B9A9A989592857D6A
S11326707C7A7873706F6C767B78767577777574FF
S11326806B64686B6E6C6F72727D89888B8B9195AD
S1132690949791888C8C8F8D8B8C878B94908E8A59
S11326A08A8B87877F7271706F6B666765677371DA
S11326B07070747A7C7F7E7376777A7B797C7E8285
S11326C08F949396969D9D9E9E908C8A88867E7DFF
S11326D07B79828581817D817E7D7C6E6868676679
S11326E0615F6363727A7C7E80868A898E8480844B
S11326F0848685838887919B9A9C999B9B95948AD1
S11327007D7E7B79756F716D717B78767576787562
S1132710746F6467696D6D6D72717986898A8B8F48
S113272095939794898A8B8E8E8A8D8A8893918EBD
S11327308C8B8C8987857571726E6E666765656F23
S113274072706F71797A7D7F777478787C797B7D0C
S11327507E8B929395949B9C9C9F968C8D8887806E
S11327607D7C787F8683807F7F817D7E74686968C5
S113277067625F62626C797B7D7F8389888C897EE6
S1132780828285848386868C999B9A9B999B969555
S11327908F807E7C7B7772726E6F797B77777579A9
S11327A07576726764696A6E6B6F71748289888BDF
S11327B08D929494968B888C8C8E8A8B8A888F9435
S11327C08F8E8B8B8C87877B7172706E6A6767655F
S11327D06B74707170767C7B807B7277777B7A798F
S11327E07D7E8592939395989C9C9F998E8C8A87E5
S11327F0847D7C797B8683827F7F827E7E786B6812
S11328006867645F606266767A7C7F8289888B8C75
S1132810827F83838683858688959B9A9C999C98DE
S11328209693867E7D7B7873716F6E767B787776F0
S1132830777775756B62686A6D6B6D70717D87886B
S1132840898C8F9493978F888A8C8D8B8B8B898CB2
S113285095908F8B8C8C8889807472716F6D66688B
S1132860646872726F7173797B7D7D737478797A21
S1132870787B7D808F929394969C9D9E9E928E8C65
S11328808987807E7B7A838782827E817F7E7C6F4C
S11328906869666761616163707A7A7E7F8488881B
S11328A08D857E8282868384878591999A9B9A9C62
S11328B09A96968A7F7D7C7A7572726D737C79782C
S11328C076767974766F6366686B6C6C70707885F5
S11328D087898A8E93939594888A8C8C8D8A8C8A26
S11328E08994928F8C8B8C8987857672726F6E67D0
S11328F0686765707370717078797C7E76727777AB
S11329007B797A7D7E8B92929395999D9B9F958EF0
S11329108D8A88837F7E7A808883828081817E7E8F
S1132920746A686867645E62626B777A7C7E8189A8
S1132930878C887F808384858285868A99999B9BEE
S11329409A9D979790827D7D7B7872716F6F7B7B68
S113295078787679777574666368696D6B6D717371
S1132960808787898C919494968C878B8B8E8A8CA4
S11329708B899096908F8B8C8D88887B7372717005
S11329806A6867656C7571717075797A7E7A71762B
S1132990777A79797C7D8491919394979C9A9E9986
S11329A08F8D8C88857E7F7A7D868682817F827EEC
S11329B07E7A6B6A6968656162616675797B7D8020
S11329C086888A8A817E8283858184858694999A81
S11329D09A9B9C9A9795877F7E7C797472706E77A8
S11329E07C797776777875766A6366696C6C6C70D7
S11329F0707C8787898B8F94939690878B8B8E8C32
S1132A008B8C8A8D9692908C8D8E898A8274737148
S1132A10706C686965687372716F7277797C7D72A6
S1132A2074767979777A7C7F8E929194959B9A9D2E
S1132A309C928D8E8A88807F7C7A85868381808132
S1132A40817D7D71686A6866615F61626F797A7C95
S1132A507E8588878C847E828384838387868F9A0D
S1132A60999C9A9D9D98978C807F7C7B7672716EE1
S1132A70737C7A797677797676706365676A6C6A3F
S1132A806F7075848688898D9292969389888B8BD2
S1132A908D8A8C8C8B9594928E8E8F8B8A8879728A
S1132AA073726F6869666670736F70707678797E1A
S1132AB0746F75777877787A7C87918F9193969BEA
S1132AC09A9F958C8F8B8B837F7F7A82898882757E
S1132AD0818581827E7B7A7877726E6D6D6E736B81
S1132AE0676A6F7478797B7E8083848483848B980F
S1132AF099989A999C9C9A9595908F8A8B84716EDB
S1132B006F6B6D696B69686D6A69686868737C7BF3
S1132B10797C7E7F828387878B8F91938F84898949
S1132B208A8C888A8B8B8A8583827E838F8C8B891F
S1132B308685818079777573726F70625D64676A68
S1132B406C707275777979777D7D8692909594987B
S1132B509C9D9D9FA09E9C9795897D79797675749F
S1132B6072717572726F6E6D6B777871707071734C
S1132B7076787B7D8486868B827C7F81818181854A
S1132B808687898C8B8F8F949B9994938F8D8A835E
S1132B90817F7C7B79787568676A67666664666836
S1132BA06C6A6C7071747F8A888B909394959796F5
S1132BB099999A98979487888581817D7F7E7D7B7A
S1132BC079777574747D7A7876757372716E7175B0
S1132BD077797D7E7771787876797B7C8080838441
S1132BE0888D8E95A2A0A09F9C97918E8C898584B8
S1132BF081817B7370706E6D6C6B6A6763626261F6
S1132C006567767D7E8587898A8C8D8E9192908E7C
S1132C10938A8387878A8A8E8F8B8A868581817D32
S1132C207C8383807D7C7A79767879777574727306
S1132C30686669686D6E717277787A7F848685912B
S1132C409B999B9C9C98999A969691908C8C897A46
S1132C50797775747172706B6A68676565656F738F
S1132C60757A7A7F808282858685858788817C7F54
S1132C708183898C8C8F9091908F8D8687918B899D
S1132C808885838081827E7E7D7A7A7567635F5FC3
S1132C905E6166676C6E74787A7E7E8B9291939295
S1132CA08F92929495959898999D92878583807F29
S1132CB07C7A737370706E6E6C6E7A7D7A797675C9
S1132CC07474777877787B7E807574777A7F838461
S1132CD086878A8A8D8D8C8A959D9997938F8E8EFF
S1132CE08E8A89868581817B69676665666363618F
S1132CF061646A6B6E71738287898786888A8B8D1B
S1132D008F909194999A938B8F8E8E8B8680807DF1
S1132D107C7A7778727A868481807C7C7979747005
S1132D206D6E6E707268696D7478797B7E80818552
S1132D30848383849198989A9B9B9F9E999793915F
S1132D408D8B8B7E70706D6D6B6B69696B6C696854
S1132D50686569767B78797B7E7F828485878C91B0
S1132D609193888588898B8A888C8B8C89878481C8
S1132D708189918B8B888683827C78757474707258
S1132D806C5F6066686B6E707375777975797A7D40
S1132D908B929193959B9A9C9E9D9F9C9C969285C9
S1132DA07C7A7976757472767473726F6E6B7078E0
S1132DB074716F70717477797B82868589897E7D61
S1132DC07F838080828387878A8B8C9190989B985D
S1132DD094918E8C8781817E7C7A797970686A6718
S1132DE067666665656A696A6C7172768588898DBD
S1132DF092929394969798999995988D87868381C2
S1132E007F7E807F7D7B79787574797C7A7877751D
S1132E1073737070747678797D7C73737773767955
S1132E207B7D808184848B8D8E9AA0A0A09E9A95B0
S1132E30908E8A89868580817A71706F6D6E6B6BD6
S1132E40696662616163656C7A7D818786898B8C32
S1132E508D8F90908E909187848788898D8F8E8CAA
S1132E6088868382807C7E8681817D7C7A78777A6D
S1132E7078767573726E646666676C6D7273767855
S1132E807B80848489959A999B9C9A989B9A98961E
S1132E9093908D8F847A7B77777473716D6A686889
S1132EA066676369717476797B7D808182868384A9
S1132EB08488877E7C8181878A8D8D8F9091918F84
S1132EC08B838D8F8C8A8685828383827F7D7B79B9
S1132ED0797064605F5E606265676B6E76787A7C39
S1132EE0808F9192929090929394969698989D9CAC
S1132EF08E858682817F7C77737471726E6F6B723C
S1132F007E7B7A78777575747676757A7A7F7C733A
S1132F1075767D81828486878A8B8E8C8B8C9A9D34
S1132F209897929090908D8A89868481817466693D
S1132F306665636363616367696A6F6F79858886B1
S1132F40868689898B8D8E8E92969A988E8C908D9A
S1132F508F8A8580807D7C79797675808782827F6F
S1132F607E7A7A7772706E6E6E716F666B7075773B
S1132F70787C7C80808382818486959898999A9EB7
S1132F80A09C9A9694918D8C86776F716E6E6C6A04
S1132F906A6A6D6A6A6968666D7A7777797D7E8018
S1132FA0818585898F909291868689898A88898B83
S1132FB08B8B88858381848D8F8C89878483807AA9
S1132FC0777774757073685E6365686A6D7173761C
S1132FD07776777B7B8190919294999A9B9C9C9D28
S1132FE09E9E9A948F827B7A7876767375767373C5
S1132FF070706E6C737772717070717476787D8294
S1133000838588857A7D817F7F81848488888B8A83
S11330109092929B9C979492908A8582817D7D7AEE
S113302079786C69696767666565656968696D70F3
S1133030717A87888B90919393969598989A95979F
S1133040958A878783827E82807F7C7B7978767479
S11330507A7D7979767673747171757479797F79FB
S11330606F76747578787B7C808184868D8B919E55
S1133070A0A09F9F9993918E8B898584818176717D
S1133080716F6E6D6C696669686667686A75808160
S113309082858588898C88898C8C8E8F8D828486A4
S11330A088898B8B888988878582817E898B8586B0
S11330B083807D7C797272716E6D6D655F64676A01
S11330C06C7073747C7E818284868B99999B9B9CA3
S11330D09C9C9F9A9793918D8C887A747572726F69
S11330E0706D6E716E6E6C6C6A72797477777C7DBC
S11330F080817E7F82848588847A7F7F82838687AD
S1133100898E929390908B8C9694918E8C898684E0
S1133110807A7A77777474686061605F6063656AE7
S1133120707475787A7C859091929494969698941C
S11331309595989898948582817D7D79797778782A
S113314077757473707B7E7B79787674747271731F
S113315076787A7D78717577797C7E8182898A8C9C
S11331608C908F95A1A19D9B9695908F8985828146
S11331707D7D7A6C68676665656462646667696CA0
S11331806F717C87858A8A8B8D8E908C8F8F9192BC
S113319094908589898A8A8786838384817F7D7BCD
S11331A07A868681817D7D797974706F6D6D6E709C
S11331B06A656B6C707175767B808285868989906F
S11331C09D9B9E9E9FA09D9C94918D8B88878174CE
S11331D070716D6D6B6C696A6D6C696A6867727A1F
S11331E07B7D7F8182858584848689898D867F83A2
S11331F0838687898A8D90918D8B8A8686918E8C21
S113320089858581817A77757572716F635C5F5F7B
S113321062656A6B71767A7C7D81808C96949797CF
S1133220999A9A9B9798999794938B7E7B7A7977BE
S1133230747471747472726F6F6D797A7876747451
S1133240767879777B7C7E80837C777A7C7E8183B9
S113325083878C8E90909391959E999793918E8B62
S11332608A82807D7C797974686364626262616059
S113327065696D6F717576848C8C8E8F8F91929445
S113328091919394959891898A868582817F7C7F98
S11332907E7B7A78777780817D7D79797775726E98
S11332A06E707274786E6C717176777B7C7F8687B2
S11332B08A8A8D8C969F9FA0A09E9A98968E8B89C1
S11332C08583837B706E6C6B6A686665676A686603
S11332D067676B788081828588888B89898A8A8DE3
S11332E08E918881868689888A89898A8988838457
S11332F07E828B88858581817E7E7A7572716E6D02
S11333006C626266666A6A6F71777B7F7F8184868E
S1133310909A999B9A9D9D9D9F999793918C8C834C
S1133320787575757272737074777379858181821B
S11333307F7D7E7C7A7C72646663646565646566A1
S113334068737C7B7C7D8084868888887C7A7D7D9C
S11333507E7F827F8382848D918E90918F909190D5
S1133360918D818485898B8C8D8B8F8C96A09D9C6F
S11333709B999896918E8A7F797976797577777506
S1133380747680818585818380817E7F786E6B6C85
S11333906D6C6B6B6567666D75757572757373723D
S11333A073746D6A706E71757476787978878D8AA6
S11333B08D8B89898A898B8A7D7E7F7F82818383B5
S11333C085858F999A9A9A999A9A989A9A93898CB8
S11333D0888585868380837D868E8A88898783868F
S11333E086868679727672727372707370717D7C60
S11333F0777A777576757476716365646366676AE0
S1133400696C6A737E7E807F83838185848579720B
S1133410747778787C7B7C7E7F89928F9093979366
S11334209695969589848988898B8B8A8A878B97C8
S11334309896969494908F8D8E837A7A7D7D7D7AFA
S11334407B797978818684848181807A797A786CB1
S113345068686969686A6868696A767E7A7A7A7976
S11334607778787A756B6E6E6F726D707373727C29
S113347088858988898B8B8B8D92898384838786C1
S11334808688888788959999979294959494979328
S1133490888786868785858488848593918D8F8B9C
S11334A08A898784867E716E6E6C6E6D6C6D6D69B3
S11334B0747C787A78777A7C787A796D686A6769C7
S11334C06A67696A6B6A747B797B7C7E7C817F82A4
S11334D0817475787A7F80828084828996959395A9
S11334E09594959590918A7F84848484878588882F
S11334F087949B999E9A9B979594928F817E7D7CCD
S11335007C787A737472768080807D7E7D7B7B7B11
S11335107A736D6C6D6D6C6C6E6A6D6C727C7B789D
S11335207876717072727468676A6A6D6F6F72749C
S1133530747D898D8D8D8D8E8F8E90908D828282FB
S11335407F8080818283828C9495969594969398BB
S11335509C9B918B8B8B8A8A89868685828D9087AA
S11335608986858383818080706F6F6E6E6F7271C0
S1133570746F74807E7D7E7A7C7B79787A6E6064E9
S11335806363656264646765717B7A7B7F85838529
S11335908685887D787B7D7D7E8180807E7E8D9012
S11335A08F8F918F90938F928F83828A8A8A8C8B4C
S11335B08A8F8C939E9C9B9A9A97928D8E8B8279FC
S11335C07977797675767575737F8786848284803A
S11335D0807F7E7B706C6C6D6B67676766686A75ED
S11335E0777373757272737279746B6F6F717374AE
S11335F075787978858B8C8C868889898A8B8B7F82
S11336007C7F7E82808285888A8B999A9B99999BFC
S113361099989A99968B86868485848280827D8403
S11336208E8A888985878A8886877B71757172728C
S1133630727072716F777A7679767675767475733F
S1133640656464636A696A696B6B6F7E7F7F80837C
S113365082838683817E737578777A7C7D7B807D97
S113366087928F96969695969795988C858A888A50
S11336708A8A8686878896989795959491908F8C58
S1133680887E7F7C7E7B7A7C7779777B8584838157
S1133690817A797B78787166686868666967676932
S11336A06C767D79787A7977777878786D6C706CC8
S11336B06E6E6F7373747A86888989898B898D900D
S11336C0928B82848485878589888889929A959447
S11336D0949595939694958C85878587848786871A
S11336E083838F908C8E8A89888684867E6C6E6DA7
S11336F06C6D6D6C6C6D68727A79797A7C7B7A7991
S11337007A796F676A66696868696A6666737B7ADC
S11337107C7D7E7D8280828378737C7D7F818280C4
S113372084828694959296939493918E938C8184BB
S11337308484868887878A86929E9D9B9A9997938C
S113374093918F837C7C7C7B7774747472747D8298
S11337507E7E7D7D7A7B797A7B6E6C6E6D6D6C6D11
S11337606A6D6B6F7B7977747272727273746D6841
S11337706A6B6F6F7172787A7B888C8E8E8D8F8E68
S11337808F8F918F85807E808280838284838A93C9
S113379096959595979A9B9B9B958C8C8B898A87FC
S11337A086858581868C88888783858381808173DB
S11337B06E6F6D707471727270727E7E7D7F7A7CB2
S11337C07A7A77746F646364636562656468676D4D
S11337D07B7B808384848587848881797D7C7D7EDE
S11337E0817C7D7F7E8A918E92909190939093912B
S11337F087878B898C8C8B8C8F8C909E9C9B9A99C1
S1133800948E908C8A8579787777747675737574CD
S11338107F87858382837F807E7C7E716B6E6A67FF
S11338206567656867677378737574747373767B9B
S1133830766E6E7073747277787A7B818D898988DD
S1133840898C898C8B8C847E7F7F827F84888A8A12
S11338508C949A9B98999C98999999968984858433
S113386084838180817D808C898989888B8A8685FF
S1133870867E73737271737071726D69737B7779FD
S1133880777777767576736A6466686B6869696B4F
S11338906A6D7B817E82828383827E838174767863
S11338A078797C7B7D7F7E84949495979596969683
S11338B095988E868A888A8A858687888794989739
S11338C09794958F908E8C8F827C7E7C7C797B778D
S11338D079777A848682807B7B797B787874676752
S11338E069676A6F6C6C6D6B737D787978737172CC
S11338F07374746B686B6B71737778777A7C898C6B
S11339008C8E8B8A888A8A8C887F7E7F8183868945
S11339108789898F9A9B9A989793949595958F8583
S11339208885878989868783828C8F8D8D89838416
S1133930827F827D716E6F6D71727272726F747D2F
S11339407D7D7C7875757474746E63636464686873
S11339506A696C6C76827F80837E7E8181818478C3
S11339607478787A80828085838493969396938FF3
S1133970919190938F83858684898D8B8D8E8C9481
S11339809E9C9B9A96908F8E8B8C8378797777798F
S11339907C7879787681868382817B797A79777865
S11339A06A666968686D6E6A6E6B6E7A7B777A7523
S11339B0727173727570696A6C6E73757979797CDA
S11339C0848C8D8D8D8B888A8A8A8B827D7E808380
S11339D0858988898A8B969B989A979593959594CF
S11339E0938885878488888586858088908C8E8B4B
S11339F08583837F8080766E6F6C6F707271727056
S1133A00717A7F7D7E79777574747571676264628B
S1133A106668696A6B6B6F7F808083817D8180803B
S1133A20847F747878787D82808385838D9793975B
S1133A309690919190919386838583868B8A8D8EBF
S1133A408B8F9C9C9B9B98928E908C8A887978789B
S1133A5077777C7B777A777B868482837E7A7A7B9E
S1133A60777A71656968686B6E6A6D6C6B767D7761
S1133A707A777371747275736C686C6C717478771F
S1133A807A7A7F8A8E8E8D8C8B888C8B8C877E7EC7
S1133A908080848789878A89929C9A999A9694943B
S1133AA09694958C848784878787858681848E8E77
S1133AB08D8D8884838080817A6F6E6D6D70717353
S1133AC071716F767E7E7E7B7875747374736C62AD
S1133AD064646568696A6B6D6C79817E83817F7FBC
S1133AE0817F838377757A767D81808385828894CC
S1133AF09595979290918F90948C828484848A8AED
S1133B008C8D8D8B969D9B9B99958E908E898B7EAB
S1133B10767977767A7C787A787782868183817AE7
S1133B207A7B767975686669656A6D6D6B6E6A71A4
S1133B307B79797A75727374747470686B6D6F7352
S1133B407878797A7C858E8C8E8C8B898B8C8B8C17
S1133B50827C808083868A878A898D999C999A99A8
S1133B6093949594969186858685888787858481A4
S1133B70898F8D8D8B83807F7C7B796E656764658F
S1133B806768656663657177777C7B7B7B807F8400
S1133B908278787C7C8287888A8C8C93A0A09F9C76
S1133BA096908F8C88897D7372716F7272716E6E4C
S1133BB06C767B767773706F74747878706E7373C9
S1133BC07A7E818284868B989A9A9B9998989A9601
S1133BD0968C7F7E7C7B7B7D797878747B827E7EFD
S1133BE07A767272706F6E646166676D7276777BD7
S1133BF07C808D939195929291949396948A898BDB
S1133C008988898684827E838B8985857E7B797881
S1133C1076756C6163606163686A6D70717F8787B4
S1133C20898B88898B8B8E8E858286858B8E9191EC
S1133C30908D8E969590908B8583817F7E776A6A2E
S1133C4069676A6A6A6768646F78797D7E7E7D8158
S1133C508184857E787D7D82868A8A8C8D909CA2E3
S1133C609E9F98938E8E8989827572726F7272721A
S1133C706F706C707B777674716F7376767C746F0B
S1133C807375787D8182858787949C9A9B9B98998C
S1133C9099989592847D7E7A7A7C7A787874768005
S1133CA0807C7D787272706E6F6961646869717509
S1133CB078797E7D88929294959291959496978E38
S1133CC0888C878888888482807E89898686807C9F
S1133CD078787474716361616062686A6D70727916
S1133CE087878A8B8A898B8C8E908A828587898D37
S1133CF09190918E8A939692908C8682827E7E7A1F
S1133D006E67696567686966666669787B7C8180C9
S1133D107F8182848683797D7F7F86898B8C8F8E59
S1133D2097A29F9E99948F8D8B88857A70726E70FE
S1133D3071706F6D6D6B7778767573707375787A53
S1133D407A707274777B81828486878D9A9A9C9C20
S1133D509A9899999593897C7C7A787B7A77777508
S1133D60737B817C7D787471716F6D6F6563696B32
S1133D706F75787A7C7E82919293969393939695BD
S1133D809794898B888686878382817C83898685BC
S1133D90817D7977767474685F625E61666B6C713D
S1133DA07376838A888D8B898B8C8E8F8E8483889F
S1133DB0868C9092908E8A8D95928E8E8882817F49
S1133DC07C7C7268686765696968676667737D7C0F
S1133DD081808080838387887D7B807F85888C8DAC
S1133DE08E8F92A0A19C9B94908D8A87867F7171FF
S1133DF0706D7070706E6C6B7179757574717375AC
S1133E00777A7C767076757A80828485888A969CA7
S1133E109A9E9C99999894938D7F7B7B777A7B79F2
S1133E2077757376817E7B7B75726F706D70696454
S1133E30686B6D7479797C7D808C9393959593925E
S1133E40959597988C8A898685878582807E7F88D8
S1133E508884847E7A777773746C61615F60646A46
S1133E606C7072747D8A8A8B8D8A8A8D8E8E92890B
S1133E708387878B8E918E8E8A8892938F8D8A8387
S1133E80817F7D7D776A6766656669676766666E4A
S1133E907B7E7F8280818283868A837A7F81838806
S1133EA08B8C8E8F909BA29C9A978F8D8B8786820A
S1133EB0766F6F6D6F6F706D6E6B6C7777757573F2
S1133EC07275777A7D7A717476797E838485898830
S1133ED0929D9B9E9D9B9A98969390847A7B7877EB
S1133EE07A78777574727D7F7B7A78726F6F6C6F76
S1133EF06E66676B6D71787B7B7F808694939596F5
S1133F0095939596959991898886838584827F7FF8
S1133F107B848883837F7B7677737370655E615E51
S1133F20636A6E6F747579888A8B8D8D8B8D8F8F94
S1133F30928E858689898F92908E8B888C93908DB2
S1133F408B84807F7C7B796E65686565686867674C
S1133F50666A797E7F82828082848688887C7E817C
S1133F6081878A8C8E8F9095A19D9B97928C8B874D
S1133F7085847A6E6F6E6C6E706D6D6B6A72797516
S1133F8075757575797A7C7F747378787D8184868C
S1133F9087898D9B9D9C9F9C9A979593908A7B7A09
S1133FA07976777976757371767F7A7A77736F6FAE
S1133FB06D6D7169666A6D71767B7B7F7F838F9689
S1133FC09596979594979699978B86878284838202
S1133FD07F7F7A7E868582817B7676757173695F51
S1133FE0605F62686E70727676848C8C8F8E8D8C36
S1133FF090909193878589888C91908D8B888792F6
S1134000908C8C86817F7D7A7A7367656564656838
S11340106666676972807F838582838487888A83E2
S11340207C818285898D8D908F929D9E9A99928EA6
S1134030898885837F726D6E6A6E6E6E6B6C696E35
S1134040777674777576787B7C80797376797A81E4
S11340508485888A8B959F9C9F9F9A9895928F8D33
S11340607E797876767777737471737D7C7A7976D6
S1134070706E6F6E736F686B6D70757A7D7E828102
S11340808B9595969896949697979A8F8785838122
S113409083817F7D7C79838582807E787675727258
S11340A06E625E6160676D6F7275777D8C8C8E90C9
S11340B08D8D8E9191938D8588898A8F8F8D8A8934
S11340C0848D928C8C87827F7D7B79786B64666328
S11340D06568666667696F7C818185848285868868
S11340E08B877E7F8183878C8E8F9190989F9B97FF
S11340F0958E8A87868282766C6E6B6C6D6E6C6B25
S11341006B69747674767876787A7D7F7F75767944
S11341107A7F8387868A89909D9E9DA09B9895939C
S11341208F8F8478797575777675737170777E79EA
S11341307A76726F6E6F70746B686E6E74797D7D53
S11341408181869496979897949698979A94878560
S113415082808181807C7C787F8683807F7A76747C
S1134160737171655E6160666B7072757779888D45
S11341708D8F908D8E909192928787898A8D908E63
S11341808A898587908E8A89837F7C7C78796F641D
S113419066636366666667696C78818285868385F3
S11341A086888A8B827E8382878C8F8F9091929D62
S11341B09B9795908A888782837B6E6C6C696C6E02
S11341C06B6B6A686D7774777A77787B7C7F817A9A
S11341D0747A797E8387878A8A8D99A09DA09D9918
S11341E094938F8E887B77767374777572736E73FE
S11341F07C7B7878736E6E6F71756F696D70717991
S11342007C7F8083838F98979999969698989A98AB
S11342108B83837F8080807C7C787A838480807A9F
S113422077747470726A5F5F62636B6F73747878AB
S1134230828D8E8F918F8E8F9293948D86898B8CA5
S11342408E8E898986838D8E8B8985807D7C797815
S11342507566646462646566666A6A73818285866B
S1134260858586898A8C877E8282858A8E8F9092C4
S113427090999C9895928B8885838180716B6B6AE9
S11342806B6C6D6A6A67697477757A79797B7D7FFF
S1134290828076777B7C828588898B8B93A09EA095
S11342A09F9A9692918C8C7E7676747475757371E0
S11342B0706E797B7977756F6E6F7174756A6C70D7
S11342C071777B7F8083828A9798999A9896989839
S11342D09999908282807D807F7D7B7977808481AB
S11342E0807C77737470716E625D63646A6F7374DB
S11342F078797D8C908F93908F9091929590878907
S11343008A8B8C8C8B878681888E8B8887817D7B3A
S11343107977776B63636263656767696D6F7E84C2
S11343208587878587888A8C8B81808584898D9011
S11343308F938F939C9895928D8885848180776ADA
S11343406C69696C6C6B696966707777797C7A7A69
S11343507E7F818379777B7C818588888C8B909D17
S11343609F9F9F9C9592908D8B84767573727375C5
S11343707271706E747C797676706D6E7173786F0D
S11343806B6F72757A7F808284859199979B9897D9
S11343909798999A958782837E7E807D7C7B797AB3
S11343A083817F7E787573737170685D6366676EF1
S11343B07174767B7B87908F919292919595969666
S11343C08B868C8A8C8C89858481827D868B87847C
S11343D07D7D7A7876747170706E636364656A6BE0
S11343E0717475797B7A79818E8F90919393959678
S11343F09B9C9B9E9D8F878884827F787774737241
S1134400716F6F7B7A797B7A787775747375767C44
S113441072676E6F737477797C7D80858989999DC5
S11344209B9E9DA09E9D9592908B8C8376757371B7
S1134430717473716F6E6D6D6A7179727071737668
S1134440777B7B7F8083867F7D82818585898A8B4C
S11344508C8B8A8B919D999593908E8B8D8A88866F
S11344608482756E6F6C6A65646462636063636A98
S1134470787E828686888A8B8D8E909092868084C0
S11344808487888A8B8C8B8C8C88878F928C8C8782
S113449087837E7A797875746F6162606065656917
S11344A06C7071747777858B888A8C8C8E8F9292DE
S11344B09494999C8F8E908D8B888683827B77765B
S11344C07278817F7D7A79777A7877757472736878
S11344D0656A6C6B6D707476797A7E7E8392999935
S11344E0999B9B9C9D9D9E9D9592887B7C797776DC
S11344F0737270727471706E797B797876756F6F80
S1134500727577787E7B7273787D818184858688E5
S1134510898C8D949A999B9A9694918F8C89898A87
S11345208779737472706F6D6E68666365616772A4
S11345307375797B81848587888B8C8E8680848053
S1134540828386888A8B8C8E8B8C9A9794928F8C9C
S11345508A8784837E797970646665636361616444
S1134560696A6D6F728188868A8A89888B8C8E8F3E
S113457091929084878E8E918E8E8B888784827D93
S113458080878381807D7B7978767779767465629C
S113459063656A6C6F6E6E73737977818E8E90909B
S11345A09697999B999C9B9E9D9286837F7F7D7A0B
S11345B07976767373717781817E7B7A787674737A
S11345C06F6E6F756E686C707376767E8283858687
S11345D0888A979C9B9C99989A989793918E8D859D
S11345E0777A797775747271716E6E6A646C7470AF
S11345F07070727478787E848488877E7C808083EF
S11346008583838588898B8B939E9B9898979492B6
S11346108F8A8987838375696B6768666464646459
S11346206263686E7C7F80848487888A89868A8AAC
S11346308E8780838586888C9190928E8C88878FD4
S1134640928C8883837F7F7C7A78777771686768B8
S1134650666566676B6D717071727D8888898B8CF5
S11346608F8F939798999A9A8E8D8F8D8C84818051
S11346707D7C7A787579837F82827E7D7A7A77767B
S1134680747472645F66686B6D717275777B818315
S1134690879596979A999B9C9B99999996948A7ECB
S11346A07D7B77797B7876757473716E7A7B75729E
S11346B072707070717377777D7E76767B7C7E8086
S11346C082848687848688919C9B9B9B99979696E7
S11346D092908D8A87787575716E696A6768666568
S11346E06563677375797C7D8081848588898A8711
S11346F07F7B7E8182858687888D929292919B9A18
S11347009592908D8882827E7E7A7B7166666668D9
S11347106868676666686B6F717F81818385878946
S1134720898C8C8F909794898A8D8D908F8E8D87AC
S113473082807F7B83898483807E7E807E7B7B777F
S11347407773676364616266696C6F71747677808E
S11347509093939596969898999A9A98988E84851A
S113476081817D7C7A797C7878757780807E7C798C
S11347707670716E6E6E70746E696B7276797A7E15
S11347807E818384878892969698989A9A9A989527
S11347909395938C7E7C7B78787474716B6B686969
S11347A0676F7672707073797A7E7E828286857B7B
S11347B07B7A7B7E7E82838586888A8B95A3A09E66
S11347C09A9694928E8D89837F7F736A6B6A6868E8
S11347D0666769686767666B797F7F818180838399
S11347E086888A8A8E887F86888B8C8E8F8F918F1D
S11347F08C8A848B8F89898584817F7E7C7F7B7C76
S113480076696666666465646468696D6F717D87E0
S113481088898E929394959697989A998E8A898985
S1134820888582817E7E7B7A797F878682827E7E7E
S11348307A7976726F6E6D655E65676A6D70787988
S11348407D7E818285949698969495979798999968
S113485096978B8383817F7D7B79787574726D697C
S1134860757875747371706F71787A7C7F7E7476E5
S1134870787A7D7D7C7D8081848787919A9A9EA1B8
S11348809E9E989694908E8B88756F706C6E6C6BF0
S1134890686866666A686D7776787A7C7F808380DC
S11348A0828385887F7A7E7E82868B8B8D8E9093A1
S11348B090929B99948E8B88878482817D7C7C7571
S11348C06D6B6B6969676765666667676B7881801E
S11348D0838486888B909293949693888A8B8E8D0A
S11348E08B8B87868380807B848988898784837F78
S11348F07F7D7A797871625D5F5E6165686C6E70E8
S1134900777B7C84909192949496969293969597C3
S1134910988F858781838482807E7C7A787677827B
S11349207E797975757272706F6E6E75746B6F7255
S113493074787A7C7E817D7F81838F97969799990D
S11349409AA09E9C9995938D7E7B7B7672706F6EF8
S11349506D6C6B69686E7878767674777A7C7D8016
S113496082807F7675797A7C7F8083838A8C908E2F
S113497095A1A19F9C99968D8C8986848181746B65
S11349806D69696B6B696A6969696769797C7E813C
S1134990817F8283848788898C887F8384868A8EBA
S11349A08E9091918F8D8A91948E8E8A83817E7D53
S11349B0797976757164636361646467686B6E7139
S11349C074767F8B8A8D8D8C8B8E8F8F939294953A
S11349D089888B898B8B8A878582807E7B7E88847D
S11349E083817D7777747372716E6F645E64656AB8
S11349F0707377797B7D7F8184939696989795954C
S1134A009797999A97978C817F7D7A7C7C7B78772E
S1134A1075737171797F797A76726E6E6E70737553
S1134A2078786D707375797F81848587888B8B9492
S1134A309F9C9F9F9C9795918F8C8A888477717295
S1134A406E6F7271706E6D6C6B696C777576787958
S1134A50787A7C7F808384877E7A7E7F82868A8B45
S1134A608D8F8F9290939C9C97958F8A8685828157
S1134A707E7D7C74686767656868696667666A6C6A
S1134A806F7C85838787868588898B8C8E908D84BF
S1134A908488888C9190908C8B878681898E8B8872
S1134AA087807D7B797876737370645F605F6268FA
S1134AB06D6E7274777A79828F8F9192918F9192C1
S1134AC094949696998F878785828584807F7D7B51
S1134AD079777782837E7E79757272706E6E6D726D
S1134AE06D66696D6E757A7B7E8082848686929B04
S1134AF0999A9B97999A9896949090897C787875CE
S1134B00767875747272716F6C747A787675707069
S1134B10727577797C7D807675787A7D84858788CF
S1134B208B8B8F8E94A1A09F9C96908E8B8A87836B
S1134B308280766C6D6A6A6C6D6A6A68686766689A
S1134B40767B7D7F7F7E7F83848687898B877F8149
S1134B5084848A8D8F909292908D8A9294918F8C76
S1134B608582817D7C7B7778736564636264656626
S1134B70666A6C7073737F89898C8C8B8A8D8D8F38
S1134B80919194938A868B898C8C8B89858480807F
S1134B907B80888783837D7976777473726F706482
S1134BA05E626568707376787A7C7F7F8491959471
S1134BB0989594939696989999988F82807E7A7C0A
S1134BC07C7B7979767673727A7F7B7A7871706D73
S1134BD06D6E727277776D6E7173777D7F82838667
S1134BE086898A949F9EA1A19F9A96938F8E8B8982
S1134BF0847770716F7073717270706D6C686D789A
S1134C0076777979797B7D7E7F8283857E777C7CDC
S1134C107F84888B8D8F8F9291939E9F9B99979081
S1134C208D8C8B888886838583837671737777757B
S1134C307575727472717172706F7479787A77782D
S1134C40777575767474747376787269696D6E6F3E
S1134C507174737878767678787A7E8B8C8D8C8E76
S1134C608E8D90949395959595969288868786894E
S1134C7084848684878788898A898A949895959676
S1134C80939291908C8C89888786847A6E6D6E6DF0
S1134C906D6D6E6B6D6D6B6D6C6E7176807E7E7BF3
S1134CA07C7B797A7A777772716F726E64646969E2
S1134CB06A6E6F6F7479777D7D7D7D828D92909120
S1134CC090938D8D8E8D8E908F8F918F8581838320
S1134CD08A8A8A8B8B8B8E8C8D8E8E8B96999391F0
S1134CE08F8F8B8C8B868785838382848074747387
S1134CF0747172736F71726F6F6B6B696F787A799D
S1134D007776757474747578777674777669686B6A
S1134D106E6E72736E717374777778797B858D8C10
S1134D208C8F94919295919394939395948C87837B
S1134D30818483858885878988888B8988949D9BCD
S1134D4098969591908F8D8C8B888581807D706EDF
S1134D506F6F6D6E6E6D6D6D707172706F727D7F41
S1134D607D7B7B7B7A787473717372717372686301
S1134D70676A697075757679787B7C7C7E7E8890AD
S1134D80908C8A8D8C8D8E8E8E908E8F90918B8749
S1134D90878889898A8C8A8B8C8C8D8E8A878A965F
S1134DA0969192918C8C8A89888789888886837861
S1134DB0727473727272716F6C6B6B6C6A6A6B76FD
S1134DC079797777777A7A79797779767676777069
S1134DD0666C6C696C6E6F717273757777787A80B4
S1134DE08E928F9193919293939295949294918BA6
S1134DF082808384858486878589888B908F8E8F33
S1134E009B9B95969491908F8C89868381838080D7
S1134E10746D6F6E6F6C6F717173726F7271706E8F
S1134E20787E7D7C787575747473717370716F732B
S1134E306C63696F6F7174737577797A7C7C7F7E2C
S1134E407D8A8C8B8C8C8D8C8F8E8D908F9196958A
S1134E50948886868989898A8A898D8886898A88B8
S1134E608893989391918E8C8D8F8B8D8988888669
S1134E70857D727373746E6E6D6C6D6B6C6C6B6A26
S1134E806A70787A7C7C7B797979797678767674AD
S1134E907972626568696B6F6E7074737378767C0F
S1134EA080808D919190929290949392938D8E8F15
S1134EB0908F8680828285848586888E8E8C8E8F64
S1134EC08E8C949D989696928C8B89868884838404
S1134ED082807A706D707371737271717070717099
S1134EE06E6E737876787576777375747271737184
S1134EF07277776B6B6D6E6F73747477787879767D
S1134F00777A7B868E8B8C8C8E8C8F8F91959494F4
S1134F109495948C8587878A8789868586898888ED
S1134F208989888F96959194949290908C8D8B8892
S1134F3088878482736E6D6F6C6E6F6B6D6D6C6C35
S1134F406C6B6C737B7F7E7C7A7D78797A767776EE
S1134F5072707171686369686B6E6E717175787C5B
S1134F607D7C807F88929190939293908F8E8F8F87
S1134F708E8E908F8A8281848488898C8B8B8E8C90
S1134F808D8E8E8D8F9B9791908F8C8B8988868741
S1134F908284828082777274747271727170726E9C
S1134FA06F716A6A6A7479787775777474757374D3
S1134FB078777577796F686C6F6E727373737273C9
S1134FC07578767A79808C8D8B8D8E929494929369
S1134FD09493939594918686848483838685878825
S1134FE087898A8A8989999B9798949291908B8CC6
S1134FF08B8787857F7F756C6F6D6D6D6E6C6C6E46
S11350006A6F7370706E777F7C7C7B7B7A78797340
S11350107174717071736E6368696A6D7175787893
S1135020797A7E7B7F7F818F91908D8D8C8D8E8E12
S11350308E918F8F91908F8787898A8A8A8B8B8BA9
S11350408D8B8D8D8F8B88919791918F8D8B8C8883
S1135050888785878885857D737374717272717191
S11350606F6B6A6C696B6A70787977767875767B22
S11350707878777775767774686B6E6D6C6C6E7014
S11350807272757778797B7C8A90909292939294DD
S11350909392959393949491858182848384878554
S11350A0868888888C8E8F8C969B97969590919104
S11350B08D8C8A838382807F7A6D6E6E6E6D6F6C49
S11350C06F73707172717170727C7F7C7B7B74738F
S11350D074747173717171727266666D6E727473C9
S11350E07678787A7C7D7C807E878E8B8D8D8E8E93
S11350F08F8F8E908F8E9195968D86878988898AD9
S11351008B8A8C8D89898989868D969391908E8CD2
S11351108C898C8C8A87898585827371747072708E
S11351206B6C6D6A6B6C6A6B6B6C777A787B7C7A70
S11351307A7A79767876767576776C636A696A6F47
S11351406E707375747878787F7F88949091939358
S11351509194949194938E918E908C808284858581
S11351608588858A8E8E8F8F8F8C8F9C979595924C
S1135170908D8787868582847F7E80716D706D7146
S113518074717171716F72706F716E797D777677EA
S1135190757573757272727072717770686F6D6FF6
S11351A07372747678787B7C767B79808E8C8C8D28
S11351B08E8C908F8E929593959594928785888AFC
S11351C0888A8A868588878889898889959691912D
S11351D0919293908E8C8C8889868585797074726F
S11351E0716D6D6B6B6D6A6C6B6A6C6A727B7A78CD
S11351F0777B7B797A7877787576767872676C6D59
S11352006E6E6E6F7174727677777A7A7E8B8E8B10
S11352108E8F93949492949493959593948985877F
S1135220898684858686888689898A8A88939791DF
S1135230939191928F8D8C8C89888883867B7173EE
S113524073706E6B6B6C6C6A6A6D6A6B6A6E7A787B
S113525078777B7A7A7A78777976767578746A6BE8
S11352606E6F706C6E7272737578777A7B7B8B8ECF
S11352708C8D9092949594949692959594958B8513
S1135280888887848486868787878A89898891978E
S113529092929191938F8D8C8C89878884857F706D
S11352A07373706F6B6C6B6D6A6B6C6A6C6A6D7820
S11352B07A77767A7A7A7B78787976757677766B78
S11352C06A6E6D706D6E707374747878797C7A8898
S11352D08E8D8D8F92949494949594949693978EA6
S11352E085878788858486848887868A888A888D46
S11352F09693939091928F8E8D8C8A8887848582E1
S1135300737272726F6C6B6C6C6B696D6B6C6B6BC4
S1135310767B7777797C797B79767976767576770B
S11353206C6A6D6E6F6E6D707273737776797C7A5A
S1135330838F8C8C8F92929492939594929692955B
S11353409184878889848585868888888A8A8988DB
S11353508C959491919093908E8C8C898888858477
S11353608475717370706C6C6A6D6B6B6B6B6A6C4B
S113537069747A7876787A7A7A79777976767676BD
S11353807870696E6D706F6E717274757778787CF1
S11353907A818F8C8E8F909494949494959397940F
S11353A0959386868888868586848888868A88896F
S11353B08789959492928F92918F8D8B8A87888416
S11353C0848577707371716D6C6B6C6B6B6C6C69CD
S11353D06C69717B7976787A797B7A777976757767
S11353E07578726A6C6E706F6E6F7373747777789A
S11353F07B7A7E8D8C8D8E909294949494949296D4
S113540095939588858788868686868789878B89FC
S11354108A8988929492918F90928E8C8D898887B4
S11354208584857B707471716F6B6C6B6C696C6B4C
S11354306A6B6A6F7A7976787A7A7A797777787418
S1135440777778746A6B6E6E706C6F72737376773D
S1135450787A7B7C8B8F8C8F8F9394949394959391
S1135460969494968C8487888685858487888A898F
S113547088868380868E888885868682817E7D7BE9
S11354807A7776776F636262646464696B6F727350
S113549077777B7D808F919294969B9B9D9C9E9E1B
S11354A09D9A979491837C7C7976726F6F6C6C6B08
S11354B06A686866656D747072747A7E7F828386AA
S11354C087898A8C908781838587848587888A8C5D
S11354D08B8B868681868E8C898787878582807E62
S11354E07C7B78757771646163646665696B6E72E1
S11354F07377797C7C808D939394979B9D9C9E9FDE
S11355009E9D9A979392847C7B797871706E6D6D71
S11355106B69696767636C737272747B7F7F828364
S11355208687898B8C8F8A82838587858587898AFC
S11355308C8B8B878681848D8C88878588858280F7
S11355407F7C7B78777573666164646765696C6F6B
S1135550717476797B7E7E8C929393969B9C9D9DB1
S11355609F9F9D99979393887C7C797872706F6DD7
S11355706D6A6A696868646A72727274797E80821C
S1135580848588888A8B8E8D8182858787848889A3
S11355908A8C8A8B868682818B8D88868488858294
S11355A0817E7D7A7A767575686263656767686DF2
S11355B06E727476797B7F7D8992939495999D9C84
S11355C09E9E9F9D99979293897D7A7977746E6F49
S11355D06C6B6B69696668646771727274797F81D8
S11355E081848588898C8B8E8F8382858788848744
S11355F0888A8B8B8987858380888D888785878631
S113560082817E7C7B787874756C61636568686878
S11356106D6D727377787B7D7E8592949496999E56
S11356209C9E9E9F9C999793938B7E7B7A78746EB5
S11356306E6C6C6A6A686766656470727374797F8D
S11356408082838687898B8B8E8F878284878786E7
S113565086888A8B8B8988858480868D88878486D2
S113566085827F7F7D7A787775756F6163646969F8
S1135670686D6F7174757A7A7E7E8492939596992B
S11356809D9E9D9F9F9D9A9893928D80797A78751F
S1135690706D6D6B6B6869676666636E7272757642
S11356A07E80828485888A8A8D8D918A8186878886
S11356B08787898B8B8B898884847E838C88878574
S11356C0848683807F7C7C79777675706462656874
S11356D06A696B6F707476797A7E7E828F95959500
S11356E0989C9E9DA09E9E9997949190827A79779A
S11356F074706C6D6A6B6868686666636B747375E6
S1135700767D8082848588898B8D8E908C82858637
S1135710878785888A8A8C8887858380808B898718
S113572084848682817E7D7C7878757572656165F6
S1135730686A686C6E717477787B7E7F818D9495CE
S113574096989C9E9DA09D9D9A96949090847A791B
S11357507875716D6E6A6B69686865666368737382
S113576075777D82818586888A8A8D8D908E8484E2
S113577086888786888A8A8C89888482807E8989BB
S11357808684828582817E7D7A7977767374686275
S113579065686A6A6B6F707576787B7C80808A95A1
S11357A09497979B9E9DA09F9D9A96949090877B9B
S11357B0787776716D6C6B6A686868656664657124
S11357C07275777C82838586878A8B8D8E8F91858F
S11357D0848788898688898C8B8A878682817E865D
S11357E08B8685828583817F7D7B79777674746BE4
S11357F06264686B696B6E717376787C7D7F808779
S1135800949496969B9E9F9F9F9E9A9794918F8A1D
S11358107B797875736D6C6C6B68686865666364B6
S11358206E7474787A82848487878B8A8D8E909143
S1135830898387878987878A8A8B89868482807D02
S1135840828A8784838483817F7D7A79787674736E
S11358506D6265686A6B6B6E717377777B7C807F32
S113586085939597979A9E9FA0A09D9B9695918FBF
S11358708B7E787675726E6B6C6969686666656531
S1135880626C7375777980838387878A8B8D8E8F1B
S1135890918C8487878A87888A8C8C8A8785818182
S11358A07D81898785828383817E7D7B7B77777504
S11358B073706364686A6C6B6E727376787A7D7FDA
S11358C0808491969698989E9EA09F9E9A97959173
S11358D08F8C80767675736E6C6A6A6868666664A7
S11358E065616A7375787980838486898A8C8C90E3
S11358F08F938D8586898A89878B8C8A898686820F
S1135900807E7E898785828283817E7D7A7977769F
S11359107573726564676B6C6B6E707476787A7D80
S11359207F81818F979598989EA09FA09E9A979427
S1135930928E8E82787875746E6A6B696967656613
S113594064646267737578797F838586898B8B8DB0
S11359508F9092918586898B8A88898B8B8887849E
S113596082807E7B868785828183807F7D7B797838
S1135970757573726862686A6E6B6E717376797A24
S11359807E7E82818C969797999CA09FA09D9B96E2
S113599094928D8E8577777573706B6B6968686682
S11359A066646462637176777A7E838587888A8B7E
S11359B08D8E9091938786888A8B88898C8A8A8633
S11359C08581807D7B838984838083817F7D7B79CE
S11359D078777673736A64676A6E6C6E71747579BE
S11359E07A7D7E828189959797989BA0A09F9E9AA5
S11359F09893928E8D877A757673716A6B686768EF
S1135A006567646562636F77777B7D8386868A8A40
S1135A108D8C8F9091938B86898A8C88898B8B88C7
S1135A208684837F7F7A818784818081827E7D7B67
S1135A307A77767573726E63686A6D6E6D7174755C
S1135A40797B7C7F818386949698999B9FA09F9E67
S1135A509A9893928E8D8A7C757673706C696A6855
S1135A60686566656464616D77777B7D8286868907
S1135A708A8C8E8E9191938E8589898C89898A8B63
S1135A80888683827E7F7A7E8685838081827E7DFE
S1135A907A7977767472726F66676B6D6F6D7173F6
S1135AA076787B7D7F818385939798989AA0A19F30
S1135AB09F9A9895918F8B8B7E747673716C6969BC
S1135AC068676665656363626A77787A7D818587CE
S1135AD0898B8C8E8E919193908589898C89898B01
S1135AE089898684827E7E7A7C858581807F827F97
S1135AF07E7B7A78767473717168676B6D706D7084
S1135B00727678797D7E8182848F9897999A9EA106
S1135B109F9E9B989591908C8B81747572726C6A20
S1135B206868676565656263616776777A7D808793
S1135B3087898B8B8E8F9092939387888A8B8B889F
S1135B408B8A89868481807D7C7A848582817F8228
S1135B50807D7C7879767572717269666A6D6F6E14
S1135B606F7476787A7B7F8184838D9798989A9DD9
S1135B70A19F9F9A989492908C8A84757572726D85
S1135B806A6968676764656364616673797A7C804F
S1135B908686898A8C8D8F919193938A868A8C8B41
S1135BA08A8A8B89868481807E7B79808782817EC4
S1135BB081807D7C7A7876757372736D676A6D6F98
S1135BC070707476787B7C7F7F83828A9698989AAB
S1135BD09DA1A09E9B979591908C8A8677757371F1
S1135BE06F696A67676765646362636372787A7C06
S1135BF0808588898C8B8E8F919293958D868A8AE5
S1135C008C8A898A88858481807C7C777E8682815F
S1135C107E80807E7D7A7977757472746F686A6D20
S1135C206F7070737578797C7F7F8383879598997B
S1135C309A9BA19F9F9A9895928E8C8A8879747466
S1135C40716F6969686766646563636362707A79B2
S1135C507E7F8687898B8C8E8F919292958F878990
S1135C608B8C8B8A8B89858481807C7D787C8482F3
S1135C70817E80817D7D79787675747272726769B0
S1135C806C71716F737478797C7E7F83838693984B
S1135C909A9A9CA2A0A09C999693918E8B897C73CE
S1135CA074706E6A686867656463626262626C7964
S1135CB0797D7F8488878A8B8F9091929195928742
S1135CC0898A8C8C89898986847F7E7C7C797779A2
S1135CD082837E7F807E7C7A797775757274737621
S1135CE0786F6E726F7175777A7B7F808283868816
