:020000020000FC
:0200000000C03E
:100200000FEF0DBF0FE30EBF07E70093E00603E714
:100210000093E4060FEF009300070093200701E02E
:1002200000934004F4E0E2E500E5019300E0008380
:1002300001E100935004F4E0E6E500E0019307E3F8
:1002400000830DE100935404F4E0EAE500E4019337
:1002500000E0008301E00093580401E000930206EF
:10026000009300020CE10093010200E100930202FE
:1002700003E00093040201E800932002B0E4A0E050
:100280000E94065308E30C930E9406530FE00C9360
:100290000E94065301E00C930E94065303E00C9366
:1002A0000E9446532B1731F0A0E0B0E40E940653A1
:1002B00001E00C930E945552B22F203049F02130BA
:1002C00049F0223049F0233049F0243049F0E8CF9A
:1002D0000C94A6520C94B4520C94BA520C94EB5257
:0402E0000C94F15237
:10A000004272616E646F6E20506F6C6C61636B00A6
:10A20000302E303009302E303409302E30380930BD
:10A210002E313209302E313609302E323009302EAF
:10A22000323409302E323809302E333109302E3392
:10A230003509302E333909302E343309302E343776
:10A2400009302E353109302E353509302E35390992
:10A25000302E363309302E363709302E373109305B
:10A260002E373509302E373909302E383309302E44
:10A27000383709302E393109302E393409302E392A
:10A280003809312E303209312E303609312E313035
:10A2900009312E313409312E313809312E3232094B
:10A2A000312E323609312E333009312E3334093113
:10A2B0002E333809312E343209312E343609312EFD
:10A2C000353009312E353409312E353709312E36E6
:10A2D0003109312E363509312E363909312E3733D1
:10A2E00009312E373709312E383109312E383509E9
:10A2F000312E383909312E393309312E39370932A7
:10A300002E303109322E303509322E303909322EB5
:10A31000313309322E313709322E323009322E32A2
:10A320003409322E323809322E333209322E333686
:10A3300009322E343009322E343409322E343809A1
:10A34000322E353209322E353609322E3630093268
:10A350002E363409322E363809322E373209322E53
:10A36000373609322E383009322E383309322E383A
:10A370003709322E393109322E393509322E393921
:10A3800009332E303309332E303709332E3131095A
:10A39000332E313509332E313909332E3233093317
:10A3A0002E323709332E333109332E333509332E0C
:10A3B000333909332E343309332E343609332E35ED
:10A3C0003009332E353409332E353809332E3632E1
:10A3D00009332E363609332E373009332E373409F8
:10A3E000332E373809332E383209332E38360933B5
:10A3F0002E393009332E393409332E393809342EA9
:10A40000303209342E303609342E303909342E31A9
:10A410003309342E313709342E323109342E323596
:10A4200009342E323909342E333309342E333709A7
:10A43000342E343109342E343509342E343909346C
:10A440002E353309342E353709342E363109342E62
:10A45000363509342E363909342E373209342E3741
:10A460003609342E383009342E383409342E383831
:10A4700009342E393209342E393609352E30300060
:10A480004D61792074686520536368776172747ACE
:10A49000004265205769746820596F750000492093
:10A4A00068616420706C616E73000F931F930FE0FE
:10A4B0000093600607E000936406000000000000BF
:10A4C000000000001091680617FF21E016FF21E050
:10A4D00015FF21E014FF24E00BE000936406000068
:10A4E00000000000000000001091680617FF22E045
:10A4F00016FF22E015FF22E014FF24E00DE0009398
:10A5000064060000000000000000000010916806D2
:10A5100017FF23E016FF23E015FF23E014FF24E0DC
:10A520000EE0009364060000000000000000000040
:10A53000109168061F3F17FF24E016FF20E015FF6B
:10A5400024E014FF24E01F910F910895F4EAE0E85D
:10A550000E94FD52B0E4A0E00E94065300EC0C9370
:10A560000E94FD520C945001F0EAE0E00E94FD527E
:10A570000C94500115E0E0E0F2EA00912402402F33
:10A58000019FE02DF10D05910E94F75205910E9467
:10A59000F75205910E94F75204910E94F75206E586
:10A5A0000E94F75200E20E94F75208E20E94F7521E
:10A5B00000E30E94F75208E70E94F7520E942453DA
:10A5C00009E20E94F752A0E0B0E40E94065302E0C4
:10A5D0000C930C945001A0E0B0E491E09C930C9497
:10A5E0005001EEE9F4EA0E94FD520C9450010E94E1
:10A5F0000653B0E4A1E00C9308950F930591003049
:10A6000019F00E94F752FACF0F9108950F931F93FC
:10A6100000E010E00000000000000000000000006A
:10A62000000000000000000000000000000000002A
:10A6300000000395003019F0113061F711F0139507
:10A64000FBCF1F910F910895542F507F569556952B
:10A65000569556955A3070F460E3560F052F0E94B8
:10A66000F7524F704A3060F460E3460F042F0E94A7
:10A67000F752089567E3560F052F0E94F752F1CF66
:10A6800067E3460F042F0E94F75208950F931F931C
:10A6900000E010E0000000000000000000000000EA
:10A6A00000000000000000000000000000000000AA
:10A6B00000000395003019F0103961F711F013957F
:08A6C000FBCF1F910F910895DB
:00000001FF
