:020000020000FC
:02000000FFC03F
:02006400EFC0EB
:1002000008E10093A40803E00093A50800E9009327
:10021000A60800EA0093A70808E0009340060093B0
:10022000440601E00093A20000E10093A308789443
:100230000FEF0093C0070093C4070093C7070E9405
:100240002F01FBCF1F930F930091A0081091A108DD
:1002500015FFFCCF0093A0080F911F9118950F93E5
:100260001F9300E010E0000000000000000000000C
:10027000000000000000000000000000000000007E
:10028000000000000395003019F01F3F61F711F0E6
:0A0290001395FBCF1F910F91089505
:00000001FF
