:020000020000FC
:102000001F931091A10816FFFCCF0093A0081F9109
:1020100008950F93019119F00E940000FBCF0F91DA
:02202000089521
:02000000FFC03F
:040064000C94A9034C
:04002C000C945A04D2
:1002000007E70093E00603E70093E4060FEF00938F
:1002100000070093200701E000934004F4E0E2E5CA
:1002200000E5019300E0008301E100935004F4E055
:10023000E6E500E0019307E300830DE10093540439
:10024000F4E0EAE500E4019300E0008301E00093BC
:100250005804B0E4A0E00E94AE0308E30C930E94AF
:10026000AE030FE00C930E94AE0301E00C930E94DA
:10027000AE0303E00C9308E10093A40803E00093AD
:10028000A5080BE00093A60800EF0093A70808E07C
:10029000009340060093440600E10093A3080FEF8B
:1002A0000DBF0FE30EBF01E00093A10601E1009333
:1002B000010B01E00093000B04E000930204F4E062
:1002C000ECE004EF019301E000830FEF00930A04D8
:1002D00000930B0405E00093430001E00093A200AB
:1002E000789400270133F9F0023301F1033309F167
:1002F000043311F1053319F1063321F1073329F1E4
:10030000083331F1093339F1003341F1013449F156
:10031000023451F1033459F1043461F10A3269F1C4
:10032000033271F1DFCF0E94C301DCCF0E94DF01F5
:10033000D9CF0E94FB01D6CF0E941702D3CF0E94D3
:100340003302D0CF0E944F02CDCF0E946B02CACFA2
:100350000E948702C7CF0E94A302C4CF0E94BF029F
:10036000C1CF0E94DB02BECF0E94F702BBCF0E942A
:100370001303B8CF0E942F03B5CF0E946703B2CFFB
:100380000E947803AFCF0E94530411E0E8E9F7E040
:100390000E944A04FBE0E8E204EF019303E00083DB
:1003A00001E00093000BF4E0E8E000E0019300833B
:1003B00001E0009300040E946C04002708950E944D
:1003C000530411E0E6EAF7E00E944A04FBE0E8E2A9
:1003D0000CEB019303E0008301E00093000BF4E0D9
:1003E000E8E000E00193008301E0009300040E9434
:1003F0006C04002708950E94530411E0E4EBF7E039
:100400000E944A04FBE0E8E206E8019303E000836F
:1004100001E00093000BF4E0E8E000E001930083CA
:1004200001E0009300040E946C04002708950E94DC
:10043000530411E0E8ECF7E00E944A04FBE0E8E234
:1004400003E5019303E0008301E00093000BF4E077
:10045000E8E000E00193008301E0009300040E94C3
:100460006C04002708950E94530411E0E6EDF7E0C4
:100470000E944A04FBE0E8E204E2019303E0008307
:1004800001E00093000BF4E0E8E000E0019300835A
:1004900001E0009300040E946C04002708950E946C
:1004A000530411E0EAEEF7E00E944A04FBE0E8E2C0
:1004B00006EF019302E0008301E00093000BF4E0FB
:1004C000E8E000E00193008301E0009300040E9453
:1004D0006C04002708950E94530411E0E8EFF7E050
:1004E0000E944A04FBE0E8E20CEC019302E0008386
:1004F00001E00093000BF4E0E8E000E001930083EA
:1005000001E0009300040E946C04002708950E94FB
:10051000530411E0E6E0F8E00E944A04FBE0E8E260
:1005200004EA019302E0008301E00093000BF4E091
:10053000E8E000E00193008301E0009300040E94E2
:100540006C04002708950E94530411E0EAE1F8E0EA
:100550000E944A04FBE0E8E20EE7019302E0008318
:1005600001E00093000BF4E0E8E000E00193008379
:1005700001E0009300040E946C04002708950E948B
:10058000530411E0E8E2F8E00E944A04FBE0E8E2EC
:100590000AE5019302E0008301E00093000BF4E020
:1005A000E8E000E00193008301E0009300040E9472
:1005B0006C04002708950E94530411E0ECE3F8E076
:1005C0000E944A04FBE0E8E208E3019302E00083B2
:1005D00001E00093000BF4E0E8E000E00193008309
:1005E00001E0009300040E946C04002708950E941B
:1005F000530411E0EAE4F8E00E944A04FBE0E8E278
:1006000008E1019302E0008301E00093000BF4E0B5
:10061000E8E000E00193008301E0009300040E9401
:100620006C04002708950E94530411E0EEE5F8E001
:100630000E944A04FBE0E8E20AEF019301E0008334
:1006400001E00093000BF4E0E8E000E00193008398
:1006500001E0009300040E946C04002708950E94AA
:10066000530411E0ECE6F8E00E944A04FBE0E8E203
:100670000EED019301E0008301E00093000BF4E034
:10068000E8E000E00193008301E00093000400270C
:100690000E946C0408950E94530411E0EAE7F8E018
:1006A0000E944A04FBE0E8E20AEA019301E00083C9
:1006B00001E00093000BF4E0E8E000E00193008328
:1006C00001E00093000400270E946C0408950E943A
:1006D000DF010E9417020E944F020E946B020E94DB
:1006E000A3020E94DB020E9413030E942F030895BD
:1006F0000E9417020E9417020E944F020E946B0282
:100700000E94A3020E94A3020E942F030E944B0397
:100710000E944B030E94A3020E944F020E944F02BC
:100720000E9417020E9417020E94A3020E944F0219
:100730000E944F020E9417020E94DF010E941702CE
:100740000E9417020E94A3020E944F020E944F02C1
:100750000895F8940091A008789418950F931F932A
:1007600000E010E0000000000000000000000000B9
:100770000000000000000000000000000000000079
:1007800000000395003019F0113061F711F0139556
:10079000FBCF1F910F9108954235203938372E37FE
:1007A0003720485A0000433620313034362E353059
:1007B00020485A004336232F4436622031313038E6
:1007C0002E373320485A0000443620313137342E3A
:1007D000363620485A004436232F453662203132BF
:1007E00034342E353120485A00004536203133311B
:1007F000382E353120485A00463620313339362ECE
:10080000393120485A004636232F4736622031348A
:1008100037392E393820485A0000473620313536CE
:10082000372E393820485A004736232F4136622068
:10083000313636312E323220485A000041362031CE
:100840003736302E303020485A004136232F42367A
:100850006220313836342E363620485A000042366F
:1008600020313937352E353320485A00433720326E
:100870003039332E303020485A0044372032333458
:10088000392E333220485A000E94AE03B0E4A1E072
:100890000C9308950F930591003019F00E944404C1
:1008A000FACF0F9108950F9301E0A0E0B0E40C930C
:1008B0000F910895F8940F93112700E0009300041E
:1008C000009308040093090400E00093000B00E08B
:0E08D00000830F917894189510FDFECF0895C7
:00000001FF
