:020000020000FC
:101E000000E010E000000000000000000000000002
:101E100000000000000000000000000000000000C2
:101E200000000395003019F01F3F61F711F0139582
:041E3000FBCF089547
:0200000000C03E
:100200000FEF10E031E0109360060093800630930A
:10021000840600916806102F10722072121721F0C8
:10022000309384060E94000F00916806102F007220
:10023000003249F0009184068894001F08F4001FE2
:100240000093840606C00091840688940395009369
:100250008406212F1870183011F40E94000F0E949C
:04026000000FD7CFE5
:00000001FF
