:020000020000FC
:101E00000F931F9300E010E00000000000000000AE
:101E100000000000000000000000000000000000C2
:101E20000000000000000395003019F01F3F61F72B
:0C1E300011F01395FBCF1F910F91089546
:0200000000C03E
:1002000007E00093E00602E00093E4060FEF00939E
:1002100000070FEF0093200701E000934004F4E093
:10022000E2E500E5019300E0008301E10093500462
:10023000B0E5A0E038E02C912C930E94000F2095AF
:080240003A953030B9F3F8CF14
:00000001FF
