:100000000C94FE000C9423010C9423010C94230106
:100010000C9423010C9423010C9423010C942301D0
:100020000C9423010C9423010C9423010C942301C0
:100030000C9423010C9423010C9423010C942301B0
:100040000C9423010C9423010C9423010C942301A0
:100050000C9423010C9423010C9423010C94230190
:100060000C9423010C9423010C9423010C94230180
:100070000C9423010C9423010C9423010C94230170
:100080000C9423010C9423010C9423010C94230160
:100090000C9423010C9423010C9423010C94230150
:1000A0000C9423010C9423010C9423010C94230140
:1000B0000C9423010C9423010C9423010C94230130
:1000C0000C9423010C9423010C9423010C94230120
:1000D0000C9423010C9423010C9423010C94230110
:1000E0000C9423010C9423010C9423010C94230100
:1000F0000C9423010C9423010C9423010C942301F0
:100100000C9423010C9423010C9423010C942301DF
:100110000C9423010C9423010C9423010C942301CF
:100120000C9423010C9423010C9423010C942301BF
:100130000C9423010C9423010C9423010C942301AF
:100140000C9423010C9423010C9423010C9423019F
:100150000C9423010C9423010C9423010C9423018F
:100160000C9423010C9423010C9423010C9423017F
:100170000C9423010C9423010C9423010C9423016F
:100180000C9423010C9423010C9423010C9423015F
:100190000C9423010C9423010C9423010C9423014F
:1001A0000C9423010C9423010C9423010C9423013F
:1001B0000C9423010C9423010C9423010C9423012F
:1001C0000C9423010C9423010C9423010C9423011F
:1001D0000C9423010C9423010C9423010C9423010F
:1001E0000C9423010C9423010C9423010C942301FF
:1001F0000C9423010C9423010C94230111241FBEA1
:10020000CFEFDFE3DEBFCDBF00E00CBF18BE19BEED
:100210001ABE1BBE10E2A0E0B0E2E4E0F3E000E0B2
:100220000BBF02C007900D92A030B107D9F710E2C2
:10023000A0E0B0E201C01D92A030B107E1F70E943A
:1002400042010C9480010C940000FC01808508950B
:10025000FC01618364830895DC018C9183FF08C0F5
:100260008FE996E8A1E081509040A040E1F707C0F7
:100270008FE39DE0A3E081509040A040E1F700C0F3
:1002800000000895CF93DF930F920F92CDB7DEB7A2
:100290008FEF8093800688E2E0E6F6E0828300E854
:1002A00016E0FF24F394809168068A838A8185FF93
:1002B0000FC080918406898389818F5F89838981BA
:1002C000F80181838483CE0102960E942C01EBCF3A
:1002D000F98212C08981F801818384838981880F22
:1002E00089838981882309F4F9828A8190E00E94B8
:1002F0002C01809168068A838A8185FFEBCFD3CF5A
:04030000F894FFCF9F
:00000001FF
