:020000020000FC
:02000000FFC03F
:102000004272616E646F6E20506F6C6C61636B0026
:100200000FEF0DBF0FE30EBF07E70093E00603E714
:100210000093E4060FEF009300070093200701E02E
:1002200000934004F4E0E2E500E5019300E0008380
:1002300001E100935004F4E0E6E500E0019307E3F8
:1002400000830DE100935404F4E0EAE500E4019337
:1002500000E0008301E000935804B0E4A0E00E94B5
:10026000530108E30C930E9453010FE00C930E948A
:10027000530101E00C930E94530103E00C93F0E260
:10028000E0E00E944A01FFCF0E945301B0E4A1E0E8
:100290000C9308950F930591003019F00E944401CA
:1002A000FACF0F9108950F931F9300E010E0000024
:1002B000000000000000000000000000000000003E
:1002C0000000000000000000000000000395003066
:1002D00019F0113061F711F01395FBCF1F910F91B9
:0202E00008957F
:00000001FF
