:100000000C94FE000C9423010C9423010C94230106
:100010000C9423010C9423010C9423010C942301D0
:100020000C9423010C9423010C9423010C942301C0
:100030000C9423010C9423010C9423010C942301B0
:100040000C9423010C9423010C9423010C942301A0
:100050000C9423010C9423010C9423010C94230190
:100060000C9423010C9423010C9423010C94230180
:100070000C9423010C9423010C9423010C94230170
:100080000C9423010C9423010C9423010C94230160
:100090000C9423010C9423010C9423010C94230150
:1000A0000C9423010C9423010C9423010C94230140
:1000B0000C9423010C9423010C9423010C94230130
:1000C0000C9423010C9423010C9423010C94230120
:1000D0000C9423010C9423010C9423010C94230110
:1000E0000C9423010C9423010C9423010C94230100
:1000F0000C9423010C9423010C9423010C942301F0
:100100000C9423010C9423010C9423010C942301DF
:100110000C9423010C9423010C9423010C942301CF
:100120000C9423010C9423010C9423010C942301BF
:100130000C9423010C9423010C9423010C942301AF
:100140000C9423010C9423010C9423010C9423019F
:100150000C9423010C9423010C9423010C9423018F
:100160000C9423010C9423010C9423010C9423017F
:100170000C9423010C9423010C9423010C9423016F
:100180000C9423010C9423010C9423010C9423015F
:100190000C9423010C9423010C9423010C9423014F
:1001A0000C9423010C9423010C9423010C9423013F
:1001B0000C9423010C9423010C9423010C9423012F
:1001C0000C9423010C9423010C9423010C9423011F
:1001D0000C9423010C9423010C9423010C9423010F
:1001E0000C9423010C9423010C9423010C942301FF
:1001F0000C9423010C9423010C94230111241FBEA1
:10020000CFEFDFE3DEBFCDBF00E00CBF18BE19BEED
:100210001ABE1BBE10E2A0E0B0E2E8EBF5E000E0A1
:100220000BBF02C007900D92A030B107D9F710E2C2
:10023000A0E0B0E201C01D92A030B107E1F70E943A
:1002400078020C94DA020C940000CF93DF9300D074
:100250000F92CDB7DEB789836A834B832C8380E40A
:1002600094E039812A81322B2B81322B2C81232B54
:10027000FC0120832496CDBFDEBFDF91CF9108958E
:100280000F93CF93DF93CDB7DEB72897CDBFDEBFF7
:1002900089839A836B832C833D834E835F83088796
:1002A00089819A81FC018181982F987F8885877048
:1002B000892B282F89819A81FC0121838C819D8142
:1002C000AE81BF81892F9A2FAB2FBB279C018B81D9
:1002D00086958695482F50E08FEF9FEF042E02C041
:1002E000880F991F0A94E2F72823392389819A817C
:1002F000FC012283338389819A81FC018081982FBC
:1003000090788B81892B8160282F89819A81FC01CB
:1003100020832896CDBFDEBFDF91CF910F91089546
:100320000F93CF93DF93CDB7DEB72897CDBFDEBF56
:1003300089839A836B832C833D834E835F830887F5
:1003400089819A81FC018181982F987F88858770A7
:10035000892B282F89819A81FC0121838C819D81A1
:10036000AE81BF81892F9A2FAB2FBB279C018B8138
:1003700086958695482F50E08FEF9FEF042E02C0A0
:10038000880F991F0A94E2F72823392389819A81DB
:10039000FC012283338389819A81FC018081982F1B
:1003A00090788B81892B8260282F89819A81FC012A
:1003B00020832896CDBFDEBFDF91CF910F910895A6
:1003C0008F92AF92CF92EF920F93CF93DF93CDB7EF
:1003D000DEB72B97CDBFDEBF89834A835B836C83F7
:1003E0007D832E830F83E886C986AA868B8680E468
:1003F00094E020E434E0F9012181322F307F2E8116
:10040000222311F028E001C020E0322B2F8122238B
:1004100011F024E001C020E0322B2885232BFC01C1
:10042000218380E494E039852A85322B2B85232B88
:10043000FC01208780E494E03E892F89322B288DAF
:10044000232BFC01218780E494E0298D3A8D3370C1
:10045000FC012483358380E494E02B8D3C8D3F7335
:10046000FC012683378380E494E020E434E0F90142
:10047000258D287FFC01258F20E434E08A819B8133
:10048000AC81BD81892F9A2FAB2FBB27AC0189810D
:1004900086958695682F70E08FEF9FEF062E02C03D
:1004A000880F991F0A94E2F784239523F901868F18
:1004B000978F80E494E020E434E0F901248D322F1A
:1004C00030782981232B2360FC01248F000080E4F5
:1004D00094E0FC01858D8823D4F72B96CDBFDEBF39
:1004E000DF91CF910F91EF90CF90AF908F900895C3
:1004F0001F93CF93DF93CDB7DEB72E97CDBFDEBF6F
:100500000E94C10280E090E58C839D838C819D8157
:10051000AA2797FDA095BA2F8E839F83A887B987B6
:100520008E819F81A885B9850BB6ABBFFC01108178
:100530000BBE1A878A8589831A821B821CC0898117
:10054000809589838C819D81AA2797FDA095BA2FDC
:100550008B879C87AD87BE878B859C85AD85BE8547
:1005600029810BB6ABBFFC0120830BBE8A819B8126
:1005700001968A839B838A819B8188309105FCF256
:10058000C5CF0F93CF93DF93CDB7DEB780E060E0A8
:1005900040E021E00E94250180E594E060E120E058
:1005A00030E540E050E000E00E944001DF91CF9153
:0805B0000F910895F894FFCFAC
:00000001FF
