:020000020000FC
:102000004272616E646F6E2773204661766F7572DF
:102010006974653A0D0A303A0953706F72740D0A8B
:10202000313A0954562053686F770D0A323A094203
:102030006F6F6B0D0A333A09466F6F640D0A343ABD
:10204000094D6F7669650D0A353A09446973706CFC
:102050006179206D656E750D0A4553433A206578A8
:1020600069740D0A00004261736562616C6C0D0A4F
:10207000000053746172205472656B0D0A00456E46
:1020800064657227732047616D650D0A0000546F07
:102090006E6B6F7473752052616D656E0D0A000072
:1020A00050756C702046696374696F6E0D0A00008C
:0620B000446F6E65210083
:0200000000C03E
:100200000FEF0DBF0FE30EBF08E10093A40803E05A
:100210000093A50800E90093A60800EA0093A70848
:1002200008E00093400600934406E0E0F0E20E94FC
:1002300069010E9457010B3169F0003381F00133ED
:10024000B1F00233E1F0033311F1043341F105332E
:1002500061F3EFCFE0EBF0E20E946901FFCF02E132
:100260000E946001E6E6F0E20E946901DECF02E151
:100270000E946001E2E7F0E20E946901D6CF02E14C
:100280000E946001EEE7F0E20E946901CECF02E138
:100290000E946001EEE8F0E20E946901C6CF02E12F
:1002A0000E946001E0EAF0E20E946901BECF1F9364
:1002B0001091A10817FFFCCF0091A0081F9108958D
:1002C0001F931091A10815FFFCCF0093A0081F9168
:1002D00008950F930591003019F00E946001FACF44
:0402E0000F910895DD
:00000001FF
