:020000020000FC
:02000000FFC03F
:102000004272616E646F6E20506F6C6C61636B0026
:100200000FEF0DBF0FE30EBF07E70093E00603E714
:100210000093E4060FEF009300070093200701E02E
:1002200000934004F4E0E2E500E5019300E0008380
:1002300001E100935004F4E0E6E500E0019307E3F8
:1002400000830DE100935404F4E0EAE500E4019337
:1002500000E0008301E00093580401E0B0E4A0E076
:100260000C93B0E4A1E002E60C93F7CF0E944501A5
:10027000B0E4A1E00C9308950F930591003019F0BC
:100280000E943601FACF0F9108950F920024B0E436
:0C029000A0E00C9007FCFDCF0F9008953B
:00000001FF
