:020000020000FC
:02000000FFC03F
:100200000FEF0DBF0FE30EBF07E10093E00603E120
:100210000093E4060FEF009300070093200701E02E
:1002200000934004F4E0E2E500E5019300E0008380
:1002300001E100935004B0E5A0E00E9421012C935D
:02024000FCCFF1
:100400000F931F932FEF0FE00093600607E0009318
:100410006406000000000000000000001091680663
:1004200017FF20E116FF20E215FF20E314FF20EA6A
:100430000BE00093640600000000000000000000D4
:100440001091680617FF20E416FF20E515FF20E64F
:1004500014FF20EB0DE00093640600000000000094
:10046000000000001091680617FF28E316FF20E83F
:1004700015FF20E914FF20EC0EE000936406000055
:100480000000000000000000109168061F3F17FFE9
:1004900020EE16FF20E015FF20EF14FF20ED2F3F88
:0C04A00011F40C9406021F910F910895B6
:00000001FF
