:020000020000FC
:102000001F931091A10816FFFCCF0093A0081F9109
:1020100008950F93019119F00E940000FBCF0F91DA
:02202000089521
:02000000FFC03F
:040064000C946B038A
:04002C000C941C0410
:1002000008ED0093340003E00093500001E501FF86
:10021000FDCF08ED0093340002E00093400007E7B3
:100220000093E00603E70093E4060FEF0093000756
:100230000093200701E000934004F4E0E2E500E5CC
:10024000019300E0008301E100935004F4E0E6E54F
:1002500000E0019307E300830DE100935404F4E010
:10026000EAE500E4019300E0008301E00093580414
:10027000B0E4A0E00E94700308E30C930E947003B6
:100280000FE00C930E94700301E00C930E94700336
:1002900003E00C9308E10093A40803E00093A50891
:1002A00007E60093A60800E00093A70808E0009383
:1002B00040060093440600E10093A3080FEF0DBF32
:1002C0000FE30EBF01E00093A10601E10093010BD3
:1002D00001E00093000B04E000930204F4E0ECE082
:1002E00004EF019301E000830FEF00930A040093F1
:1002F0000B0405E00093430001E00093A200789412
:1003000000270133E9F00233F1F00333F9F004334D
:1003100001F1053309F1063311F1073319F10833FF
:1003200021F1093329F1013449F1023451F1033447
:1003300059F1043461F10A3269F1033271F1E1CF0C
:100340000E94D001DECF0E94E701DBCF0E94FE01B8
:10035000D8CF0E941502D5CF0E942C02D2CF0E9486
:100360004302CFCF0E945A02CCCF0E947102C9CF64
:100370000E948802C6CF0E949F02C3CF0E94B6028D
:10038000C0CF0E94CD02BDCF0E94E402BACF0E942E
:10039000FB02B7CF0E942903B4CF0E943A03B1CF2A
:1003A0000E94150411E0ECE1F7E0FBE0E8E206E46E
:1003B00001930FE30083F4E0E8E000E001930083A1
:1003C00001E0009300040E942F04002708950E947A
:1003D000150411E0EAE2F7E0FBE0E8E209EB019343
:1003E0000BE30083F4E0E8E000E00193008301E028
:1003F000009300040E942F04002708950E94150412
:1004000011E0E8E3F7E0FBE0E8E20FE5019308E341
:100410000083F4E0E8E000E00193008301E0009352
:1004200000040E942F04002708950E94150411E083
:10043000ECE4F7E0FBE0E8E205E3019305E3008389
:10044000F4E0E8E000E00193008301E000930004A1
:100450000E942F04002708950E94150411E0EAE588
:10046000F7E0FBE0E8E208E3019302E30083F4E055
:10047000E8E000E00193008301E0009300040E94A3
:100480002F04002708950E94150411E0EEE6F7E01E
:10049000FBE0E8E207E601930FE20083F4E0E8E026
:1004A00000E00193008301E0009300040E942F0408
:1004B000002708950E94150411E0ECE7F7E0FBE047
:1004C000E8E20EEB01930CE20083F4E0E8E000E0E8
:1004D0000193008301E0009300040E942F04002791
:1004E00008950E94150411E0EAE8F7E0FBE0E8E275
:1004F0000BE301930AE20083F4E0E8E000E00193FB
:10050000008301E0009300040E942F040027089557
:100510000E94150411E0EEE9F7E0FBE0E8E20CEDE3
:10052000019307E20083F4E0E8E000E00193008338
:1005300001E0009300040E942F04002708950E9408
:10054000150411E0ECEAF7E0FBE0E8E20FE90193C3
:1005500005E20083F4E0E8E000E00193008301E0BD
:10056000009300040E942F04002708950E941504A0
:1005700011E0E0ECF7E0FBE0E8E203E8019303E2DE
:100580000083F4E0E8E000E00193008301E00093E1
:1005900000040E942F04002708950E94150411E012
:1005A000EEECF7E0FBE0E8E205E8019301E200830E
:1005B000F4E0E8E000E00193008301E00093000430
:1005C0000E942F04002708950E94150411E0E2EE16
:1005D000F7E0FBE0E8E203EA01930FE10083F4E0D7
:1005E000E8E000E00193008301E0009300040E9432
:1005F0002F04002708950E94150411E0E0EFF7E0B2
:10060000FBE0E8E20DED01930DE10083F4E0E8E0AA
:1006100000E00193008301E00093000400270E94A2
:100620002F0408950E94150411E0EEEFF7E0FBE0BF
:10063000E8E20AE901930AE10083F4E0E8E000E07F
:100640000193008301E00093000400270E942F041F
:1006500008950E94E7010E9415020E9443020E9431
:100660005A020E9488020E94B6020E94E4020E947E
:10067000FB0208950E9415020E9415020E94430287
:100680000E945A020E9488020E9488020E94FB0275
:100690000E9412030E9412030E9488020E944302D9
:1006A0000E9443020E9415020E9415020E948802C5
:1006B0000E9443020E9443020E9415020E94E70129
:1006C0000E9415020E9415020E9488020E944302A5
:1006D0000E9443020895F8940091A0087894189518
:1006E0000F931F9300E010E00000000000000000E6
:1006F00000000000000000000000000000000000FA
:100700000000000000000395003019F0113061F77F
:1007100011F01395FBCF1F910F91089542352039A9
:1007200038372E373720485A0000433620313034CE
:10073000362E353020485A004336232F4436622067
:10074000313130382E373320485A000044362031BA
:100750003137342E363620485A004436232F45365A
:100760006220313234342E353120485A000045366B
:1007700020313331382E353120485A004636203169
:100780003339362E393120485A004636232F473622
:100790006220313437392E393820485A0000473624
:1007A00020313536372E393820485A004736232F26
:1007B00041366220313636312E323220485A00001E
:1007C000413620313736302E303020485A004136FD
:1007D000232F42366220313836342E363620485A9E
:1007E0000000423620313937352E353320485A0043
:1007F000433720323039332E303020485A004437C6
:1008000020323334392E333220485A000E9470038C
:10081000B0E4A1E00C9308950F930591003019F016
:100820000E940604FACF0F9108950F9301E0A0E013
:10083000B0E40C930F910895F8940F93112700E002
:10084000009300040093080400930904E8E2FBE02D
:1008500000E0019300E000830F917894189510FD5B
:04086000FECF08952A
:00000001FF
