:020000020000FC
:06200000446F6E65210033
:0200000000C03E
:100200000FEF0DBF0FE30EBF08E10093A40803E05A
:100210000093A50800E90093A60800EA0093A70848
:1002200008E00093400600934406E0E0F0E20E94FC
:1002300021010B3119F00E942A01F9CF0E943301EC
:10024000FFCF1F931091A10817FFFCCF0091A008CA
:100250001F9108951F931091A10815FFFCCF0093E3
:10026000A0081F9108950F930591003019F00E9486
:080270002A01FACF0F91089555
:00000001FF
