:020000020000FC
:0200000004C03A
:0200080025C110
:1002000001E00093490604E000934A060093420689
:1002100002E00093520601E00093A200789407E305
:100220000093E00603E30093E4060FEF009300075A
:100230000093200701E000934004F4E0E2E500E5CC
:10024000019300E0008301E10093500400E000937B
:100250000050FFCFF89400000000000000000000F4
:10026000000000000000000000000000000000008E
:10027000000000000000000000000000000000007E
:10028000000000000000000000000000000000006E
:10029000000000000000000000000000000010E06E
:1002A00010934C0603950093005010E010934C06F9
:0402B0007894189591
:00000001FF
