:020000020000FC
:102000004D79206E616D65206973204272616E6446
:102010006F6E20506F6C6C61636B2C206D79206645
:1020200061766F7572697465206D6F766965206978
:10203000732050756C702046696374696F6E2C2034
:102040006D79206661766F757269746520636C6165
:1020500073732069732045454C343734342C206D1C
:1020600079206661766F75726974652054562073A5
:10207000686F772069732053746172205472656BA6
:102080002E0D0A496E7374727563746F723A204430
:10209000722E2045726963204D2E2053636877614C
:1020A00072747A2C2054413A204956414E0D0A0050
:0200000000C03E
:100200000FEF0DBF0FE30EBF08E10093A40803E05A
:100210000093A50800E90093A60800EA0093A70848
:1002200008E00093400600934406E0E0F0E20E94FC
:040230000902FFCFF1
:100400001F931091A10815FFFCCF0093A0081F9126
:1004100008950F930591003019F00E941A01FACF48
:040420000F9108959B
:00000001FF
